{
  "_format": "hh-sol-artifact-1",
  "contractName": "WeightedPool",
  "sourceName": "contracts/WeightedPool.sol",
  "abi": [
    {
      "inputs": [
        {
          "components": [
            {
              "internalType": "string",
              "name": "name",
              "type": "string"
            },
            {
              "internalType": "string",
              "name": "symbol",
              "type": "string"
            },
            {
              "internalType": "contract IERC20[]",
              "name": "tokens",
              "type": "address[]"
            },
            {
              "internalType": "uint256[]",
              "name": "normalizedWeights",
              "type": "uint256[]"
            },
            {
              "internalType": "contract IRateProvider[]",
              "name": "rateProviders",
              "type": "address[]"
            },
            {
              "internalType": "address[]",
              "name": "assetManagers",
              "type": "address[]"
            },
            {
              "internalType": "uint256",
              "name": "swapFeePercentage",
              "type": "uint256"
            }
          ],
          "internalType": "struct WeightedPool.NewPoolParams",
          "name": "params",
          "type": "tuple"
        },
        {
          "internalType": "contract IVault",
          "name": "vault",
          "type": "address"
        },
        {
          "internalType": "contract IProtocolFeePercentagesProvider",
          "name": "protocolFeeProvider",
          "type": "address"
        },
        {
          "internalType": "uint256",
          "name": "pauseWindowDuration",
          "type": "uint256"
        },
        {
          "internalType": "uint256",
          "name": "bufferPeriodDuration",
          "type": "uint256"
        },
        {
          "internalType": "address",
          "name": "owner",
          "type": "address"
        }
      ],
      "stateMutability": "nonpayable",
      "type": "constructor"
    },
    {
      "anonymous": false,
      "inputs": [
        {
          "indexed": true,
          "internalType": "address",
          "name": "owner",
          "type": "address"
        },
        {
          "indexed": true,
          "internalType": "address",
          "name": "spender",
          "type": "address"
        },
        {
          "indexed": false,
          "internalType": "uint256",
          "name": "value",
          "type": "uint256"
        }
      ],
      "name": "Approval",
      "type": "event"
    },
    {
      "anonymous": false,
      "inputs": [
        {
          "indexed": false,
          "internalType": "bool",
          "name": "paused",
          "type": "bool"
        }
      ],
      "name": "PausedStateChanged",
      "type": "event"
    },
    {
      "anonymous": false,
      "inputs": [
        {
          "indexed": true,
          "internalType": "uint256",
          "name": "feeType",
          "type": "uint256"
        },
        {
          "indexed": false,
          "internalType": "uint256",
          "name": "protocolFeePercentage",
          "type": "uint256"
        }
      ],
      "name": "ProtocolFeePercentageCacheUpdated",
      "type": "event"
    },
    {
      "anonymous": false,
      "inputs": [
        {
          "indexed": false,
          "internalType": "bool",
          "name": "enabled",
          "type": "bool"
        }
      ],
      "name": "RecoveryModeStateChanged",
      "type": "event"
    },
    {
      "anonymous": false,
      "inputs": [
        {
          "indexed": false,
          "internalType": "uint256",
          "name": "swapFeePercentage",
          "type": "uint256"
        }
      ],
      "name": "SwapFeePercentageChanged",
      "type": "event"
    },
    {
      "anonymous": false,
      "inputs": [
        {
          "indexed": true,
          "internalType": "address",
          "name": "from",
          "type": "address"
        },
        {
          "indexed": true,
          "internalType": "address",
          "name": "to",
          "type": "address"
        },
        {
          "indexed": false,
          "internalType": "uint256",
          "name": "value",
          "type": "uint256"
        }
      ],
      "name": "Transfer",
      "type": "event"
    },
    {
      "inputs": [],
      "name": "DOMAIN_SEPARATOR",
      "outputs": [
        {
          "internalType": "bytes32",
          "name": "",
          "type": "bytes32"
        }
      ],
      "stateMutability": "view",
      "type": "function"
    },
    {
      "inputs": [
        {
          "internalType": "address",
          "name": "owner",
          "type": "address"
        },
        {
          "internalType": "address",
          "name": "spender",
          "type": "address"
        }
      ],
      "name": "allowance",
      "outputs": [
        {
          "internalType": "uint256",
          "name": "",
          "type": "uint256"
        }
      ],
      "stateMutability": "view",
      "type": "function"
    },
    {
      "inputs": [
        {
          "internalType": "address",
          "name": "spender",
          "type": "address"
        },
        {
          "internalType": "uint256",
          "name": "amount",
          "type": "uint256"
        }
      ],
      "name": "approve",
      "outputs": [
        {
          "internalType": "bool",
          "name": "",
          "type": "bool"
        }
      ],
      "stateMutability": "nonpayable",
      "type": "function"
    },
    {
      "inputs": [
        {
          "internalType": "address",
          "name": "account",
          "type": "address"
        }
      ],
      "name": "balanceOf",
      "outputs": [
        {
          "internalType": "uint256",
          "name": "",
          "type": "uint256"
        }
      ],
      "stateMutability": "view",
      "type": "function"
    },
    {
      "inputs": [],
      "name": "decimals",
      "outputs": [
        {
          "internalType": "uint8",
          "name": "",
          "type": "uint8"
        }
      ],
      "stateMutability": "view",
      "type": "function"
    },
    {
      "inputs": [
        {
          "internalType": "address",
          "name": "spender",
          "type": "address"
        },
        {
          "internalType": "uint256",
          "name": "amount",
          "type": "uint256"
        }
      ],
      "name": "decreaseAllowance",
      "outputs": [
        {
          "internalType": "bool",
          "name": "",
          "type": "bool"
        }
      ],
      "stateMutability": "nonpayable",
      "type": "function"
    },
    {
      "inputs": [],
      "name": "disableRecoveryMode",
      "outputs": [],
      "stateMutability": "nonpayable",
      "type": "function"
    },
    {
      "inputs": [],
      "name": "enableRecoveryMode",
      "outputs": [],
      "stateMutability": "nonpayable",
      "type": "function"
    },
    {
      "inputs": [],
      "name": "getATHRateProduct",
      "outputs": [
        {
          "internalType": "uint256",
          "name": "",
          "type": "uint256"
        }
      ],
      "stateMutability": "view",
      "type": "function"
    },
    {
      "inputs": [
        {
          "internalType": "bytes4",
          "name": "selector",
          "type": "bytes4"
        }
      ],
      "name": "getActionId",
      "outputs": [
        {
          "internalType": "bytes32",
          "name": "",
          "type": "bytes32"
        }
      ],
      "stateMutability": "view",
      "type": "function"
    },
    {
      "inputs": [],
      "name": "getActualSupply",
      "outputs": [
        {
          "internalType": "uint256",
          "name": "",
          "type": "uint256"
        }
      ],
      "stateMutability": "view",
      "type": "function"
    },
    {
      "inputs": [],
      "name": "getAuthorizer",
      "outputs": [
        {
          "internalType": "contract IAuthorizer",
          "name": "",
          "type": "address"
        }
      ],
      "stateMutability": "view",
      "type": "function"
    },
    {
      "inputs": [],
      "name": "getDomainSeparator",
      "outputs": [
        {
          "internalType": "bytes32",
          "name": "",
          "type": "bytes32"
        }
      ],
      "stateMutability": "view",
      "type": "function"
    },
    {
      "inputs": [],
      "name": "getInvariant",
      "outputs": [
        {
          "internalType": "uint256",
          "name": "",
          "type": "uint256"
        }
      ],
      "stateMutability": "view",
      "type": "function"
    },
    {
      "inputs": [],
      "name": "getLastPostJoinExitInvariant",
      "outputs": [
        {
          "internalType": "uint256",
          "name": "",
          "type": "uint256"
        }
      ],
      "stateMutability": "view",
      "type": "function"
    },
    {
      "inputs": [
        {
          "internalType": "address",
          "name": "account",
          "type": "address"
        }
      ],
      "name": "getNextNonce",
      "outputs": [
        {
          "internalType": "uint256",
          "name": "",
          "type": "uint256"
        }
      ],
      "stateMutability": "view",
      "type": "function"
    },
    {
      "inputs": [],
      "name": "getNormalizedWeights",
      "outputs": [
        {
          "internalType": "uint256[]",
          "name": "",
          "type": "uint256[]"
        }
      ],
      "stateMutability": "view",
      "type": "function"
    },
    {
      "inputs": [],
      "name": "getOwner",
      "outputs": [
        {
          "internalType": "address",
          "name": "",
          "type": "address"
        }
      ],
      "stateMutability": "view",
      "type": "function"
    },
    {
      "inputs": [],
      "name": "getPausedState",
      "outputs": [
        {
          "internalType": "bool",
          "name": "paused",
          "type": "bool"
        },
        {
          "internalType": "uint256",
          "name": "pauseWindowEndTime",
          "type": "uint256"
        },
        {
          "internalType": "uint256",
          "name": "bufferPeriodEndTime",
          "type": "uint256"
        }
      ],
      "stateMutability": "view",
      "type": "function"
    },
    {
      "inputs": [],
      "name": "getPoolId",
      "outputs": [
        {
          "internalType": "bytes32",
          "name": "",
          "type": "bytes32"
        }
      ],
      "stateMutability": "view",
      "type": "function"
    },
    {
      "inputs": [
        {
          "internalType": "uint256",
          "name": "feeType",
          "type": "uint256"
        }
      ],
      "name": "getProtocolFeePercentageCache",
      "outputs": [
        {
          "internalType": "uint256",
          "name": "",
          "type": "uint256"
        }
      ],
      "stateMutability": "view",
      "type": "function"
    },
    {
      "inputs": [],
      "name": "getProtocolFeesCollector",
      "outputs": [
        {
          "internalType": "contract IProtocolFeesCollector",
          "name": "",
          "type": "address"
        }
      ],
      "stateMutability": "view",
      "type": "function"
    },
    {
      "inputs": [],
      "name": "getRateProviders",
      "outputs": [
        {
          "internalType": "contract IRateProvider[]",
          "name": "",
          "type": "address[]"
        }
      ],
      "stateMutability": "view",
      "type": "function"
    },
    {
      "inputs": [],
      "name": "getScalingFactors",
      "outputs": [
        {
          "internalType": "uint256[]",
          "name": "",
          "type": "uint256[]"
        }
      ],
      "stateMutability": "view",
      "type": "function"
    },
    {
      "inputs": [],
      "name": "getSwapFeePercentage",
      "outputs": [
        {
          "internalType": "uint256",
          "name": "",
          "type": "uint256"
        }
      ],
      "stateMutability": "view",
      "type": "function"
    },
    {
      "inputs": [],
      "name": "getVault",
      "outputs": [
        {
          "internalType": "contract IVault",
          "name": "",
          "type": "address"
        }
      ],
      "stateMutability": "view",
      "type": "function"
    },
    {
      "inputs": [],
      "name": "inRecoveryMode",
      "outputs": [
        {
          "internalType": "bool",
          "name": "",
          "type": "bool"
        }
      ],
      "stateMutability": "view",
      "type": "function"
    },
    {
      "inputs": [
        {
          "internalType": "address",
          "name": "spender",
          "type": "address"
        },
        {
          "internalType": "uint256",
          "name": "addedValue",
          "type": "uint256"
        }
      ],
      "name": "increaseAllowance",
      "outputs": [
        {
          "internalType": "bool",
          "name": "",
          "type": "bool"
        }
      ],
      "stateMutability": "nonpayable",
      "type": "function"
    },
    {
      "inputs": [],
      "name": "name",
      "outputs": [
        {
          "internalType": "string",
          "name": "",
          "type": "string"
        }
      ],
      "stateMutability": "view",
      "type": "function"
    },
    {
      "inputs": [
        {
          "internalType": "address",
          "name": "owner",
          "type": "address"
        }
      ],
      "name": "nonces",
      "outputs": [
        {
          "internalType": "uint256",
          "name": "",
          "type": "uint256"
        }
      ],
      "stateMutability": "view",
      "type": "function"
    },
    {
      "inputs": [
        {
          "internalType": "bytes32",
          "name": "poolId",
          "type": "bytes32"
        },
        {
          "internalType": "address",
          "name": "sender",
          "type": "address"
        },
        {
          "internalType": "address",
          "name": "recipient",
          "type": "address"
        },
        {
          "internalType": "uint256[]",
          "name": "balances",
          "type": "uint256[]"
        },
        {
          "internalType": "uint256",
          "name": "lastChangeBlock",
          "type": "uint256"
        },
        {
          "internalType": "uint256",
          "name": "protocolSwapFeePercentage",
          "type": "uint256"
        },
        {
          "internalType": "bytes",
          "name": "userData",
          "type": "bytes"
        }
      ],
      "name": "onExitPool",
      "outputs": [
        {
          "internalType": "uint256[]",
          "name": "",
          "type": "uint256[]"
        },
        {
          "internalType": "uint256[]",
          "name": "",
          "type": "uint256[]"
        }
      ],
      "stateMutability": "nonpayable",
      "type": "function"
    },
    {
      "inputs": [
        {
          "internalType": "bytes32",
          "name": "poolId",
          "type": "bytes32"
        },
        {
          "internalType": "address",
          "name": "sender",
          "type": "address"
        },
        {
          "internalType": "address",
          "name": "recipient",
          "type": "address"
        },
        {
          "internalType": "uint256[]",
          "name": "balances",
          "type": "uint256[]"
        },
        {
          "internalType": "uint256",
          "name": "lastChangeBlock",
          "type": "uint256"
        },
        {
          "internalType": "uint256",
          "name": "protocolSwapFeePercentage",
          "type": "uint256"
        },
        {
          "internalType": "bytes",
          "name": "userData",
          "type": "bytes"
        }
      ],
      "name": "onJoinPool",
      "outputs": [
        {
          "internalType": "uint256[]",
          "name": "",
          "type": "uint256[]"
        },
        {
          "internalType": "uint256[]",
          "name": "",
          "type": "uint256[]"
        }
      ],
      "stateMutability": "nonpayable",
      "type": "function"
    },
    {
      "inputs": [
        {
          "components": [
            {
              "internalType": "enum IVault.SwapKind",
              "name": "kind",
              "type": "uint8"
            },
            {
              "internalType": "contract IERC20",
              "name": "tokenIn",
              "type": "address"
            },
            {
              "internalType": "contract IERC20",
              "name": "tokenOut",
              "type": "address"
            },
            {
              "internalType": "uint256",
              "name": "amount",
              "type": "uint256"
            },
            {
              "internalType": "bytes32",
              "name": "poolId",
              "type": "bytes32"
            },
            {
              "internalType": "uint256",
              "name": "lastChangeBlock",
              "type": "uint256"
            },
            {
              "internalType": "address",
              "name": "from",
              "type": "address"
            },
            {
              "internalType": "address",
              "name": "to",
              "type": "address"
            },
            {
              "internalType": "bytes",
              "name": "userData",
              "type": "bytes"
            }
          ],
          "internalType": "struct IPoolSwapStructs.SwapRequest",
          "name": "request",
          "type": "tuple"
        },
        {
          "internalType": "uint256",
          "name": "balanceTokenIn",
          "type": "uint256"
        },
        {
          "internalType": "uint256",
          "name": "balanceTokenOut",
          "type": "uint256"
        }
      ],
      "name": "onSwap",
      "outputs": [
        {
          "internalType": "uint256",
          "name": "",
          "type": "uint256"
        }
      ],
      "stateMutability": "nonpayable",
      "type": "function"
    },
    {
      "inputs": [],
      "name": "pause",
      "outputs": [],
      "stateMutability": "nonpayable",
      "type": "function"
    },
    {
      "inputs": [
        {
          "internalType": "address",
          "name": "owner",
          "type": "address"
        },
        {
          "internalType": "address",
          "name": "spender",
          "type": "address"
        },
        {
          "internalType": "uint256",
          "name": "value",
          "type": "uint256"
        },
        {
          "internalType": "uint256",
          "name": "deadline",
          "type": "uint256"
        },
        {
          "internalType": "uint8",
          "name": "v",
          "type": "uint8"
        },
        {
          "internalType": "bytes32",
          "name": "r",
          "type": "bytes32"
        },
        {
          "internalType": "bytes32",
          "name": "s",
          "type": "bytes32"
        }
      ],
      "name": "permit",
      "outputs": [],
      "stateMutability": "nonpayable",
      "type": "function"
    },
    {
      "inputs": [
        {
          "internalType": "bytes32",
          "name": "poolId",
          "type": "bytes32"
        },
        {
          "internalType": "address",
          "name": "sender",
          "type": "address"
        },
        {
          "internalType": "address",
          "name": "recipient",
          "type": "address"
        },
        {
          "internalType": "uint256[]",
          "name": "balances",
          "type": "uint256[]"
        },
        {
          "internalType": "uint256",
          "name": "lastChangeBlock",
          "type": "uint256"
        },
        {
          "internalType": "uint256",
          "name": "protocolSwapFeePercentage",
          "type": "uint256"
        },
        {
          "internalType": "bytes",
          "name": "userData",
          "type": "bytes"
        }
      ],
      "name": "queryExit",
      "outputs": [
        {
          "internalType": "uint256",
          "name": "bptIn",
          "type": "uint256"
        },
        {
          "internalType": "uint256[]",
          "name": "amountsOut",
          "type": "uint256[]"
        }
      ],
      "stateMutability": "view",
      "type": "function"
    },
    {
      "inputs": [
        {
          "internalType": "bytes32",
          "name": "poolId",
          "type": "bytes32"
        },
        {
          "internalType": "address",
          "name": "sender",
          "type": "address"
        },
        {
          "internalType": "address",
          "name": "recipient",
          "type": "address"
        },
        {
          "internalType": "uint256[]",
          "name": "balances",
          "type": "uint256[]"
        },
        {
          "internalType": "uint256",
          "name": "lastChangeBlock",
          "type": "uint256"
        },
        {
          "internalType": "uint256",
          "name": "protocolSwapFeePercentage",
          "type": "uint256"
        },
        {
          "internalType": "bytes",
          "name": "userData",
          "type": "bytes"
        }
      ],
      "name": "queryJoin",
      "outputs": [
        {
          "internalType": "uint256",
          "name": "bptOut",
          "type": "uint256"
        },
        {
          "internalType": "uint256[]",
          "name": "amountsIn",
          "type": "uint256[]"
        }
      ],
      "stateMutability": "view",
      "type": "function"
    },
    {
      "inputs": [
        {
          "internalType": "uint256",
          "name": "swapFeePercentage",
          "type": "uint256"
        }
      ],
      "name": "setSwapFeePercentage",
      "outputs": [],
      "stateMutability": "nonpayable",
      "type": "function"
    },
    {
      "inputs": [],
      "name": "symbol",
      "outputs": [
        {
          "internalType": "string",
          "name": "",
          "type": "string"
        }
      ],
      "stateMutability": "view",
      "type": "function"
    },
    {
      "inputs": [],
      "name": "totalSupply",
      "outputs": [
        {
          "internalType": "uint256",
          "name": "",
          "type": "uint256"
        }
      ],
      "stateMutability": "view",
      "type": "function"
    },
    {
      "inputs": [
        {
          "internalType": "address",
          "name": "recipient",
          "type": "address"
        },
        {
          "internalType": "uint256",
          "name": "amount",
          "type": "uint256"
        }
      ],
      "name": "transfer",
      "outputs": [
        {
          "internalType": "bool",
          "name": "",
          "type": "bool"
        }
      ],
      "stateMutability": "nonpayable",
      "type": "function"
    },
    {
      "inputs": [
        {
          "internalType": "address",
          "name": "sender",
          "type": "address"
        },
        {
          "internalType": "address",
          "name": "recipient",
          "type": "address"
        },
        {
          "internalType": "uint256",
          "name": "amount",
          "type": "uint256"
        }
      ],
      "name": "transferFrom",
      "outputs": [
        {
          "internalType": "bool",
          "name": "",
          "type": "bool"
        }
      ],
      "stateMutability": "nonpayable",
      "type": "function"
    },
    {
      "inputs": [],
      "name": "unpause",
      "outputs": [],
      "stateMutability": "nonpayable",
      "type": "function"
    },
    {
      "inputs": [],
      "name": "updateProtocolFeePercentageCache",
      "outputs": [],
      "stateMutability": "nonpayable",
      "type": "function"
    }
  ],
  "bytecode": "0x6106206040523480156200001257600080fd5b506040516200776a3803806200776a833981016040819052620000359162001431565b8560400151518660800151858789600001518a602001518b604001518c60a001518d60c001518b8b8b6000898751600214801562000071575081155b6200007e57600162000081565b60025b8a8a8a8a8a8a8a8a828289898d85336001600160a01b031660001b8480604051806040016040528060018152602001603160f81b81525087878160039080519060200190620000d292919062001105565b508051620000e890600490602084019062001105565b50506005805460ff19166012179055508151602092830120608052805191012060a052507f8b73c3c69bb8fe3d512ecc4cf759cc79239f7b179b0ffacaa9a75d522b39400f60c05260e0526001600160601b0319606091821b81166101005291901b1661012052506200016690506276a70083111561019462000a41565b6200017a62278d0082111561019562000a41565b42909101610140819052016101605285516200019c906002111560c862000a41565b620001b6620001aa62000a56565b8751111560c962000a41565b620001c18462000a5b565b6000620001dc8b8b898962000aef60201b620013861760201c565b90508061018081815250508a6001600160a01b031663d2946c2b6040518163ffffffff1660e01b815260040160206040518083038186803b1580156200022157600080fd5b505afa15801562000236573d6000803e3d6000fd5b505050506040513d601f19601f820116820180604052508101906200025c919062001412565b6001600160a01b03166101a0816001600160a01b031660601b81525050505050505050505050505050505050505050505050806001600160a01b03166101c0816001600160a01b031660601b81525050620002bf81600062000c0160201b60201c565b620002cc81600262000c01565b620002d981600362000c01565b50620002eb600883111560c962000a41565b6200030382825162000dbd60201b620014b31760201c565b6200030e8162000dcc565b151560f81b6102e052805181906000906200032557fe5b60200260200101516001600160a01b03166101e0816001600160a01b031660601b81525050806001815181106200035857fe5b60200260200101516001600160a01b0316610200816001600160a01b031660601b81525050600282116200038e576000620003a5565b806002815181106200039c57fe5b60200260200101515b60601b6001600160601b0319166102205260038211620003c7576000620003de565b80600381518110620003d557fe5b60200260200101515b60601b6001600160601b03191661024052600482116200040057600062000417565b806004815181106200040e57fe5b60200260200101515b60601b6001600160601b03191661026052600582116200043957600062000450565b806005815181106200044757fe5b60200260200101515b60601b6001600160601b03191661028052600682116200047257600062000489565b806006815181106200048057fe5b60200260200101515b60601b6001600160601b0319166102a05260078211620004ab576000620004c2565b80600781518110620004b957fe5b60200260200101515b6001600160a01b03166102c0816001600160a01b031660601b81525050505060008660400151519050620005078188606001515162000dbd60201b620014b31760201c565b6103008190526000805b828160ff1610156200058157600089606001518260ff16815181106200053357fe5b602002602001015190506200055b662386f26fc1000082101561012e62000a4160201b60201c565b62000575818462000e2860201b620014c41790919060201c565b92505060010162000511565b506200059a670de0b6b3a7640000821461013462000a41565b8760400151600081518110620005ac57fe5b60200260200101516001600160a01b0316610320816001600160a01b031660601b815250508760400151600181518110620005e357fe5b60200260200101516001600160a01b0316610340816001600160a01b031660601b81525050600282116200061957600062000634565b87604001516002815181106200062b57fe5b60200260200101515b60601b6001600160601b03191661036052600382116200065657600062000671565b87604001516003815181106200066857fe5b60200260200101515b60601b6001600160601b031916610380526004821162000693576000620006ae565b8760400151600481518110620006a557fe5b60200260200101515b60601b6001600160601b0319166103a05260058211620006d0576000620006eb565b8760400151600581518110620006e257fe5b60200260200101515b60601b6001600160601b0319166103c052600682116200070d57600062000728565b87604001516006815181106200071f57fe5b60200260200101515b60601b6001600160601b0319166103e052600782116200074a57600062000765565b87604001516007815181106200075c57fe5b60200260200101515b6001600160a01b0316610400816001600160a01b031660601b81525050620007ac88604001516000815181106200079857fe5b602002602001015162000e4560201b60201c565b6104205260408801518051620007c9919060019081106200079857fe5b6104405260028211620007de576000620007f4565b620007f488604001516002815181106200079857fe5b6104605260038211620008095760006200081f565b6200081f88604001516003815181106200079857fe5b6104805260048211620008345760006200084a565b6200084a88604001516004815181106200079857fe5b6104a052600582116200085f57600062000875565b6200087588604001516005815181106200079857fe5b6104c052600682116200088a576000620008a0565b620008a088604001516006815181106200079857fe5b6104e05260078211620008b5576000620008cb565b620008cb88604001516007815181106200079857fe5b6105005260608801518051600090620008e057fe5b6020026020010151610520818152505087606001516001815181106200090257fe5b6020026020010151610540818152505060028211620009235760006200093e565b87606001516002815181106200093557fe5b60200260200101515b6105605260038211620009535760006200096e565b87606001516003815181106200096557fe5b60200260200101515b6105805260048211620009835760006200099e565b87606001516004815181106200099557fe5b60200260200101515b6105a05260058211620009b3576000620009ce565b8760600151600581518110620009c557fe5b60200260200101515b6105c05260068211620009e3576000620009fe565b8760600151600681518110620009f557fe5b60200260200101515b6105e0526007821162000a1357600062000a2e565b876060015160078151811062000a2557fe5b60200260200101515b6106005250620016f29650505050505050565b8162000a525762000a528162000f14565b5050565b600890565b62000a7462000a6962000f29565b82101560cb62000a41565b62000a8d62000a8262000f32565b82111560ca62000a41565b62000aaf8160c0603f60085462000f3e60201b620014d617909392919060201c565b6008556040517fa9ba3ffe0b6c366b81232caab38605a0699ad5398d6cce76f91ee809e322dafc9062000ae490839062001680565b60405180910390a150565b600062000b078362000f6360201b620014f91760201c565b6040516309b2760f60e01b81526000906001600160a01b038716906309b2760f9062000b389088906004016200166b565b602060405180830381600087803b15801562000b5357600080fd5b505af115801562000b68573d6000803e3d6000fd5b505050506040513d601f19601f8201168201806040525081019062000b8e9190620013f9565b604051633354e3e960e11b81529091506001600160a01b038716906366a9c7d29062000bc390849088908890600401620015dd565b600060405180830381600087803b15801562000bde57600080fd5b505af115801562000bf3573d6000803e3d6000fd5b509298975050505050505050565b604051631a7c326360e01b81526000906001600160a01b03841690631a7c32639062000c3290859060040162001680565b60206040518083038186803b15801562000c4b57600080fd5b505afa15801562000c60573d6000803e3d6000fd5b505050506040513d601f19601f8201168201806040525081019062000c869190620013f9565b90508162000cca5762000ca48162000f6f60201b620015031760201c565b600980546001600160401b0319166001600160401b039290921691909117905562000d7e565b600282141562000d205762000cea8162000f6f60201b620015031760201c565b600980546001600160401b03929092166801000000000000000002600160401b600160801b031990921691909117905562000d7e565b600382141562000d715762000d408162000f6f60201b620015031760201c565b600980546001600160401b0392909216600160801b02600160801b600160c01b031990921691909117905562000d7e565b62000d7e6101bb62000f14565b817f6bfb689528fa96ec1ad670ad6d6064be1ae96bfd5d2ee35c837fd0fe0c11959a8260405162000db0919062001680565b60405180910390a2505050565b62000a52828214606762000a41565b6000805b825181101562000e1d5760006001600160a01b031683828151811062000df257fe5b60200260200101516001600160a01b03161462000e1457600091505062000e23565b60010162000dd0565b50600190505b919050565b600082820162000e3c848210158362000a41565b90505b92915050565b60006001600160a01b03821630141562000e695750670de0b6b3a764000062000e23565b6000826001600160a01b031663313ce5676040518163ffffffff1660e01b815260040160206040518083038186803b15801562000ea557600080fd5b505afa15801562000eba573d6000803e3d6000fd5b505050506040513d601f19601f8201168201806040525081019062000ee09190620015ba565b60ff169050600062000eff60128362000f8d60201b620015201760201c565b600a0a670de0b6b3a764000002949350505050565b62000f26816210905360ea1b62000fa5565b50565b64e8d4a5100090565b67016345785d8a000090565b600062000f4d84848462001006565b506001901b60001901811b1992909216911b1790565b8062000a528162001066565b600062000f896001600160401b038311156101ba62000a41565b5090565b600062000f9f83831115600162000a41565b50900390565b62461bcd60e51b600090815260206004526007602452600a808404818106603090810160081b958390069590950190829004918206850160101b01602363ffffff0060e086901c160160181b0190930160c81b60445260e882901c90606490fd5b620010176101008310606462000a41565b62001050600182101580156200104857506200104460ff8461010003620010ed60201b620015361760201c565b8211155b606462000a41565b6200106183821c156101b462000a41565b505050565b600281511015620010775762000f26565b6000816000815181106200108757fe5b602002602001015190506000600190505b825181101562001061576000838281518110620010b157fe5b60200260200101519050620010e2816001600160a01b0316846001600160a01b031610606562000a4160201b60201c565b915060010162001098565b6000818310620010fe578162000e3c565b5090919050565b828054600181600116156101000203166002900490600052602060002090601f016020900481019282601f106200114857805160ff191683800117855562001178565b8280016001018555821562001178579182015b82811115620011785782518255916020019190600101906200115b565b5062000f899291505b8082111562000f89576000815560010162001181565b805162000e3f81620016dc565b600082601f830112620011b5578081fd5b8151620011cc620011c682620016b0565b62001689565b818152915060208083019084810181840286018201871015620011ee57600080fd5b60005b848110156200121a5781516200120781620016dc565b84529282019290820190600101620011f1565b505050505092915050565b600082601f83011262001236578081fd5b815162001247620011c682620016b0565b8181529150602080830190848101818402860182018710156200126957600080fd5b60005b848110156200121a5781516200128281620016dc565b845292820192908201906001016200126c565b600082601f830112620012a6578081fd5b8151620012b7620011c682620016b0565b818152915060208083019084810181840286018201871015620012d957600080fd5b60005b848110156200121a578151620012f281620016dc565b84529282019290820190600101620012dc565b600082601f83011262001316578081fd5b815162001327620011c682620016b0565b8181529150602080830190848101818402860182018710156200134957600080fd5b60005b848110156200121a578151845292820192908201906001016200134c565b600082601f8301126200137b578081fd5b81516001600160401b0381111562001391578182fd5b6020620013a7601f8301601f1916820162001689565b92508183528481838601011115620013be57600080fd5b60005b82811015620013de578481018201518482018301528101620013c1565b82811115620013f05760008284860101525b50505092915050565b6000602082840312156200140b578081fd5b5051919050565b60006020828403121562001424578081fd5b815162000e3c81620016dc565b60008060008060008060c087890312156200144a578182fd5b86516001600160401b038082111562001461578384fd5b9088019060e0828b03121562001475578384fd5b6200148160e062001689565b82518281111562001490578586fd5b6200149e8c8286016200136a565b825250602083015182811115620014b3578586fd5b620014c18c8286016200136a565b602083015250604083015182811115620014d9578586fd5b620014e78c82860162001225565b604083015250606083015182811115620014ff578586fd5b6200150d8c82860162001305565b60608301525060808301518281111562001525578586fd5b620015338c82860162001295565b60808301525060a0830151828111156200154b578586fd5b620015598c828601620011a4565b60a08301525060c083015160c08201528098505050506200157e886020890162001197565b94506200158f886040890162001197565b93506060870151925060808701519150620015ae8860a0890162001197565b90509295509295509295565b600060208284031215620015cc578081fd5b815160ff8116811462000e3c578182fd5b60006060820185835260206060818501528186518084526080860191508288019350845b818110156200162957620016168551620016d0565b8352938301939183019160010162001601565b505084810360408601528551808252908201925081860190845b8181101562000bf357620016588351620016d0565b8552938301939183019160010162001643565b60208101600383106200167a57fe5b91905290565b90815260200190565b6040518181016001600160401b0381118282101715620016a857600080fd5b604052919050565b60006001600160401b03821115620016c6578081fd5b5060209081020190565b6001600160a01b031690565b6001600160a01b038116811462000f2657600080fd5b60805160a05160c05160e0516101005160601c6101205160601c6101405161016051610180516101a05160601c6101c05160601c6101e05160601c6102005160601c6102205160601c6102405160601c6102605160601c6102805160601c6102a05160601c6102c05160601c6102e05160f81c610300516103205160601c6103405160601c6103605160601c6103805160601c6103a05160601c6103c05160601c6103e05160601c6104005160601c610420516104405161046051610480516104a0516104c0516104e05161050051610520516105405161056051610580516105a0516105c0516105e05161060051615de7620019836000398061227252806134f552508061222f52806134945250806121ec52806134335250806121a952806133d2525080612166528061337152508061212352806133105250806120e052806132af5250806120a6528061324e525080612b07525080612ae3525080612abf525080612a9b525080612a77525080612a53525080612a2f525080612a0b52508061256c52806134ba52508061252a52806134595250806124e852806133f85250806124a65280613397525080612464528061333652508061242252806132d55250806123e0528061327452508061239752806132135250806119fc5250806137ae5250806109e35280613a0f52508061098c52806139c352508061093552806139775250806108de528061392b52508061088752806138df525080610822528061387e5250806107cb528061382d52508061077d52806137ef52508061066b528061069652806106c1525080611165525080610ae352508061184152508061181d525080610e7f525080610e5b525080610da952508061288b5250806128cd5250806128ac5250615de76000f3fe608060405234801561001057600080fd5b50600436106102f45760003560e01c80638456cb5911610191578063aaabadc5116100e3578063d2946c2b11610097578063dd62ed3e11610071578063dd62ed3e1461058d578063ed24911d146105a0578063f89f27ed146105a8576102f4565b8063d2946c2b1461055f578063d505accf14610567578063d5c096c41461057a576102f4565b8063b35056b8116100c8578063b35056b814610547578063b7b814fc1461054f578063c0ff1a1514610557576102f4565b8063aaabadc514610537578063b10962781461053f576102f4565b80638d928af8116101455780639d2c110c1161011f5780639d2c110c146104fe578063a457c2d714610511578063a9059cbb14610524576102f4565b80638d928af8146104db57806390193b7c146104e357806395d89b41146104f6576102f4565b8063876f303b11610176578063876f303b146104ab57806387ec6817146104b3578063893d20e8146104c6576102f4565b80638456cb5914610490578063851c1bb314610498576102f4565b806338e9922e1161024a57806355c67628116101fe57806370a08231116101d857806370a082311461044957806374f3b0091461045c5780637ecebe001461047d576102f4565b806355c676281461040d5780636028bfd4146104155780637046401614610436576102f4565b8063395093511161022f57806339509351146103ea5780633f4ba83a146103fd57806354a844ba14610405576102f4565b806338e9922e146103cf57806338fff2d0146103e2576102f4565b80631dd746ea116102ac57806323ef89ed1161028657806323ef89ed146103aa578063313ce567146103b25780633644e515146103c7576102f4565b80631dd746ea1461036d578063238a2d591461038257806323b872dd14610397576102f4565b80630da0669c116102dd5780630da0669c1461033757806318160ddd146103415780631c0de05114610356576102f4565b806306fdde03146102f9578063095ea7b314610317575b600080fd5b6103016105b0565b60405161030e9190615cb3565b60405180910390f35b61032a61032536600461551d565b610647565b60405161030e9190615b50565b61033f61065e565b005b6103496106e9565b60405161030e9190615b73565b61035e6106ef565b60405161030e93929190615b5b565b610375610718565b60405161030e9190615b18565b61038a610727565b60405161030e9190615acb565b61032a6103a536600461546d565b610a36565b610349610aac565b6103ba610ab2565b60405161030e9190615d1f565b610349610abb565b61033f6103dd3660046159b6565b610ac5565b610349610ae1565b61032a6103f836600461551d565b610b05565b61033f610b40565b61033f610b52565b610349610b64565b61042861042336600461564c565b610b77565b60405161030e929190615d06565b6103496104443660046159b6565b610bae565b610349610457366004615419565b610c45565b61046f61046a36600461564c565b610c60565b60405161030e929190615b2b565b61034961048b366004615419565b610d88565b61033f610d93565b6103496104a6366004615749565b610da5565b610349610df7565b6104286104c136600461564c565b610e33565b6104ce610e59565b60405161030e9190615ab7565b6104ce610e7d565b6103496104f1366004615419565b610ea1565b610301610ebc565b61034961050c3660046158ba565b610f1d565b61032a61051f36600461551d565b611016565b61032a61053236600461551d565b611054565b6104ce611061565b61034961106b565b61032a611083565b61033f611094565b6103496110a6565b6104ce611163565b61033f6105753660046154ad565b611187565b61046f61058836600461564c565b611212565b61034961059b366004615435565b611335565b610349611372565b61037561137c565b60038054604080516020601f600260001961010060018816150201909516949094049384018190048102820181019092528281526060939092909183018282801561063c5780601f106106115761010080835404028352916020019161063c565b820191906000526020600020905b81548152906001019060200180831161061f57829003601f168201915b505050505090505b90565b600061065433848461154c565b5060015b92915050565b6106666115b4565b6106917f0000000000000000000000000000000000000000000000000000000000000000600061160e565b6106bc7f0000000000000000000000000000000000000000000000000000000000000000600261160e565b6106e77f0000000000000000000000000000000000000000000000000000000000000000600361160e565b565b60025490565b60008060006106fc6117fe565b15925061070761181b565b915061071161183f565b9050909192565b6060610722611863565b905090565b606060006107336119fa565b905060608167ffffffffffffffff8111801561074e57600080fd5b50604051908082528060200260200182016040528015610778578160200160208202803683370190505b5090507f0000000000000000000000000000000000000000000000000000000000000000816000815181106107a957fe5b60200260200101906001600160a01b031690816001600160a01b0316815250507f0000000000000000000000000000000000000000000000000000000000000000816001815181106107f757fe5b60200260200101906001600160a01b031690816001600160a01b0316815250506002821115610873577f00000000000000000000000000000000000000000000000000000000000000008160028151811061084e57fe5b60200260200101906001600160a01b031690816001600160a01b03168152505061087c565b91506106449050565b6003821115610873577f0000000000000000000000000000000000000000000000000000000000000000816003815181106108b357fe5b60200260200101906001600160a01b031690816001600160a01b0316815250506004821115610873577f00000000000000000000000000000000000000000000000000000000000000008160048151811061090a57fe5b60200260200101906001600160a01b031690816001600160a01b0316815250506005821115610873577f00000000000000000000000000000000000000000000000000000000000000008160058151811061096157fe5b60200260200101906001600160a01b031690816001600160a01b0316815250506006821115610873577f0000000000000000000000000000000000000000000000000000000000000000816006815181106109b857fe5b60200260200101906001600160a01b031690816001600160a01b0316815250506007821115610873577f000000000000000000000000000000000000000000000000000000000000000081600781518110610a0f57fe5b60200260200101906001600160a01b031690816001600160a01b0316815250505b91505090565b600080610a438533611335565b9050610a67336001600160a01b0387161480610a5f5750838210155b61019e611a1e565b610a72858585611a2c565b336001600160a01b03861614801590610a8d57506000198114155b15610a9f57610a9f853385840361154c565b60019150505b9392505050565b600a5490565b60055460ff1690565b6000610722611372565b610acd611b0c565b610ad5611b52565b610ade81611b65565b50565b7f000000000000000000000000000000000000000000000000000000000000000090565b3360008181526001602090815260408083206001600160a01b03871684529091528120549091610654918590610b3b90866114c4565b61154c565b610b48611b0c565b6106e76000611bde565b610b5a611b0c565b6106e76001611c6f565b6008546000906107229060c0603f611cc6565b60006060610b8d8651610b886119fa565b6114b3565b610ba289898989898989611cd5611d37611da6565b97509795505050505050565b6000610bb8611083565b15610bc557506000610c40565b81610bdd575060095467ffffffffffffffff16610c40565b6002821415610c05575060095468010000000000000000900467ffffffffffffffff16610c40565b6003821415610c355750600954700100000000000000000000000000000000900467ffffffffffffffff16610c40565b610c406101bb611f3d565b919050565b6001600160a01b031660009081526020819052604090205490565b60608088610c8a610c6f610e7d565b6001600160a01b0316336001600160a01b03161460cd611a1e565b610c9f610c95610ae1565b82146101f4611a1e565b60606000610cac86611f67565b15610cd457610cb9611f96565b610ccb89610cc56106e9565b88611fa9565b92509050610d26565b610cdc611fd5565b6060610ce6611863565b9050610cf28a82611fdd565b610d168d8d8d8d8d610d02611083565b610d0c578d610d0f565b60005b878e611cd5565b93509150610d248382611d37565b505b610d308b82612046565b81895167ffffffffffffffff81118015610d4957600080fd5b50604051908082528060200260200182016040528015610d73578160200160208202803683370190505b509450945050505b5097509795505050505050565b600061065882610ea1565b610d9b611b0c565b6106e76001611bde565b60007f000000000000000000000000000000000000000000000000000000000000000082604051602001610dda929190615a41565b604051602081830303815290604052805190602001209050919050565b600080610e026106e9565b90506000610e1f610e116110a6565b610e19612050565b8461229e565b509050610e2c82826114c4565b9250505090565b60006060610e448651610b886119fa565b610ba2898989898989896122e161232a611da6565b7f000000000000000000000000000000000000000000000000000000000000000090565b7f000000000000000000000000000000000000000000000000000000000000000090565b6001600160a01b031660009081526006602052604090205490565b60048054604080516020601f600260001961010060018816150201909516949094049384018190048102820181019092528281526060939092909183018282801561063c5780601f106106115761010080835404028352916020019161063c565b60008360800151610f2f610c6f610e7d565b610f3a610c95610ae1565b610f42611fd5565b6000610f518660200151612393565b90506000610f628760400151612393565b9050610f6e86836125b7565b9550610f7a85826125b7565b9450600087516001811115610f8b57fe5b1415610fd757610f9e87606001516125c3565b60608801819052610faf90836125b7565b60608801526000610fc18888886125e4565b9050610fcd8183612617565b945050505061100e565b610fe58760600151826125b7565b60608801526000610ff7888888612623565b9050611003818461264e565b9050610fcd8161265a565b509392505050565b6000806110233385611335565b905080831061103d576110383385600061154c565b61104a565b61104a338585840361154c565b5060019392505050565b6000610654338484611a2c565b6000610722612676565b6000610722600060c061107c6126f0565b9190611cc6565b6008546000906107229060ff6126f6565b61109c611b0c565b6106e76000611c6f565b600060606110b2610e7d565b6001600160a01b031663f94d46686110c8610ae1565b6040518263ffffffff1660e01b81526004016110e49190615b73565b60006040518083038186803b1580156110fc57600080fd5b505afa158015611110573d6000803e3d6000fd5b505050506040513d6000823e601f3d908101601f191682016040526111389190810190615548565b5091505061114d81611148611863565b611fdd565b6060611157612050565b9050610e2c8183612700565b7f000000000000000000000000000000000000000000000000000000000000000090565b60007f6e71edae12b1b97f4d1f60370fef10105fa2faae0126114a169c64845d6126c98888886111b68c610ea1565b896040516020016111cc96959493929190615b9b565b6040516020818303038152906040528051906020012090506111fd88826111f4878787612772565b886101f86127b1565b61120888888861154c565b5050505050505050565b60608088611221610c6f610e7d565b61122c610c95610ae1565b611234611fd5565b606061123e611863565b90506112486106e9565b6112f5576000606061125d8d8d8d868b612808565b9150915061127661126c61284b565b83101560cc611a1e565b611288600061128361284b565b612852565b61129b8b61129461284b565b8403612852565b6112a5818461232a565b808a5167ffffffffffffffff811180156112be57600080fd5b506040519080825280602002602001820160405280156112e8578160200160208202803683370190505b5095509550505050610d7b565b6112ff8882611fdd565b600060606113278d8d8d8d8d611313611083565b61131d578d611320565b60005b898e6122e1565b9150915061129b8b83612852565b600061133f610e7d565b6001600160a01b0316826001600160a01b031614156113615750600019610658565b61136b838361285c565b9050610658565b6000610722612887565b6060610722612050565b6000611391836114f9565b6040517f09b2760f0000000000000000000000000000000000000000000000000000000081526000906001600160a01b038716906309b2760f906113d9908890600401615c9f565b602060405180830381600087803b1580156113f357600080fd5b505af1158015611407573d6000803e3d6000fd5b505050506040513d601f19601f8201168201806040525081019061142b9190615634565b6040517f66a9c7d20000000000000000000000000000000000000000000000000000000081529091506001600160a01b038716906366a9c7d29061147790849088908890600401615bcf565b600060405180830381600087803b15801561149157600080fd5b505af11580156114a5573d6000803e3d6000fd5b509298975050505050505050565b6114c08183146067611a1e565b5050565b6000828201610aa58482101583611a1e565b60006114e3848484612924565b506001901b60001901811b1992909216911b1790565b806114c08161296b565b600061151c67ffffffffffffffff8311156101ba611a1e565b5090565b6000611530838311156001611a1e565b50900390565b60008183106115455781610aa5565b5090919050565b6001600160a01b0380841660008181526001602090815260408083209487168084529490915290819020849055517f8c5be1e5ebec7d5bd14f71427d1e84f3dd0314c0f7b2291e5b200ac8c7c3b925906115a7908590615b73565b60405180910390a3505050565b6115bc611b52565b60006115c66110a6565b90506000806115e4836115d7612050565b6115df6106e9565b61229e565b915091506115f1826129e4565b6115fa836129fb565b80156116095761160981612a04565b505050565b6040517f1a7c32630000000000000000000000000000000000000000000000000000000081526000906001600160a01b03841690631a7c326390611656908590600401615b73565b60206040518083038186803b15801561166e57600080fd5b505afa158015611682573d6000803e3d6000fd5b505050506040513d601f19601f820116820180604052508101906116a69190615634565b9050816116f4576116b681611503565b600980547fffffffffffffffffffffffffffffffffffffffffffffffff00000000000000001667ffffffffffffffff929092169190911790556117c1565b60028214156117515761170681611503565b6009805467ffffffffffffffff9290921668010000000000000000027fffffffffffffffffffffffffffffffff0000000000000000ffffffffffffffff9092169190911790556117c1565b60038214156117b65761176381611503565b6009805467ffffffffffffffff92909216700100000000000000000000000000000000027fffffffffffffffff0000000000000000ffffffffffffffffffffffffffffffff9092169190911790556117c1565b6117c16101bb611f3d565b817f6bfb689528fa96ec1ad670ad6d6064be1ae96bfd5d2ee35c837fd0fe0c11959a826040516117f19190615b73565b60405180910390a2505050565b600061180861183f565b42118061072257505060075460ff161590565b7f000000000000000000000000000000000000000000000000000000000000000090565b7f000000000000000000000000000000000000000000000000000000000000000090565b6060600061186f6119fa565b905060608167ffffffffffffffff8111801561188a57600080fd5b506040519080825280602002602001820160405280156118b4578160200160208202803683370190505b5090506118bf612a09565b816000815181106118cc57fe5b6020026020010181815250506118e0612a2d565b816001815181106118ed57fe5b60200260200101818152505060028211156108735761190a612a51565b8160028151811061191757fe5b602002602001018181525050600382111561087357611934612a75565b8160038151811061194157fe5b60200260200101818152505060048211156108735761195e612a99565b8160048151811061196b57fe5b602002602001018181525050600582111561087357611988612abd565b8160058151811061199557fe5b6020026020010181815250506006821115610873576119b2612ae1565b816006815181106119bf57fe5b6020026020010181815250506007821115610873576119dc612b05565b816007815181106119e957fe5b602002602001018181525050610a30565b7f000000000000000000000000000000000000000000000000000000000000000090565b816114c0576114c081611f3d565b611a436001600160a01b0384161515610198611a1e565b611a5a6001600160a01b0383161515610199611a1e565b611a65838383611609565b6001600160a01b038316600090815260208190526040902054611a8b90826101a0612b29565b6001600160a01b038085166000908152602081905260408082209390935590841681522054611aba90826114c4565b6001600160a01b0380841660008181526020819052604090819020939093559151908516907fddf252ad1be2c89b69c2b068fc378daa952ba7f163c4a11628f55a4df523b3ef906115a7908590615b73565b6000611b3b6000357fffffffff0000000000000000000000000000000000000000000000000000000016610da5565b9050610ade611b4a8233612b3f565b610191611a1e565b6106e7611b5d6117fe565b610192611a1e565b611b7a611b70612c28565b82101560cb611a1e565b611b8f611b85612c31565b82111560ca611a1e565b600854611ba0908260c0603f6114d6565b6008556040517fa9ba3ffe0b6c366b81232caab38605a0699ad5398d6cce76f91ee809e322dafc90611bd3908390615b73565b60405180910390a150565b8015611bfe57611bf9611bef61181b565b4210610193611a1e565b611c13565b611c13611c0961183f565b42106101a9611a1e565b600780547fffffffffffffffffffffffffffffffffffffffffffffffffffffffffffffff00168215151790556040517f9e3a5e37224532dea67b89face185703738a228a6e8a23dee546960180d3be6490611bd3908390615b50565b600854611c7e908260ff612c3d565b6008556040517feff3d4d215b42bf0960be9c6d5e05c22cba4df6627a3a523e2acee733b5854c890611cb1908390615b50565b60405180910390a180610ade57610ade612c64565b6001901b6000190191901c1690565b6000606080611ce2612050565b9050600080611cf18a84612cac565b9150915060006060611d078e8d878c888d612d0c565b9092509050611d23838d838888611d1e8189611520565b612d9f565b909e909d509b505050505050505050505050565b81518151611d469082906114b3565b60005b81811015611da057611d81848281518110611d6057fe5b6020026020010151848381518110611d7457fe5b6020026020010151612dc3565b848281518110611d8d57fe5b6020908102919091010152600101611d49565b50505050565b333014611e95576000306001600160a01b0316600036604051611dca929190615a71565b6000604051808303816000865af19150503d8060008114611e07576040519150601f19603f3d011682016040523d82523d6000602084013e611e0c565b606091505b505090508060008114611e1b57fe5b60046000803e6000517fffffffff00000000000000000000000000000000000000000000000000000000167f43adbafb000000000000000000000000000000000000000000000000000000008114611e77573d6000803e3d6000fd5b506020600460003e604060205260243d03602460403e601c3d016000f35b611e9d611fd5565b6060611ea7611863565b9050611eb38782611fdd565b60006060611ecb8c8c8c8c8c8c898d8d63ffffffff16565b91509150611edd81848663ffffffff16565b8051601f1982018390526343adbafb7fffffffffffffffffffffffffffffffffffffffffffffffffffffffffffffffc08301526020027fffffffffffffffffffffffffffffffffffffffffffffffffffffffffffffffdc82016044820181fd5b610ade817f42414c0000000000000000000000000000000000000000000000000000000000612e14565b6000808251118015610658575060ff801682806020019051810190611f8c91906159ce565b60ff161492915050565b6106e7611fa1611083565b6101b6611a1e565b600060606000611fb884612e8f565b90506060611fc7878784612ea5565b919791965090945050505050565b6106e7611b52565b81518151611fec9082906114b3565b60005b81811015611da05761202784828151811061200657fe5b602002602001015184838151811061201a57fe5b6020026020010151612f54565b84828151811061203357fe5b6020908102919091010152600101611fef565b6114c08282612f8a565b6060600061205c6119fa565b905060608167ffffffffffffffff8111801561207757600080fd5b506040519080825280602002602001820160405280156120a1578160200160208202803683370190505b5090507f0000000000000000000000000000000000000000000000000000000000000000816000815181106120d257fe5b6020026020010181815250507f00000000000000000000000000000000000000000000000000000000000000008160018151811061210c57fe5b6020026020010181815250506002821115610873577f00000000000000000000000000000000000000000000000000000000000000008160028151811061214f57fe5b6020026020010181815250506003821115610873577f00000000000000000000000000000000000000000000000000000000000000008160038151811061219257fe5b6020026020010181815250506004821115610873577f0000000000000000000000000000000000000000000000000000000000000000816004815181106121d557fe5b6020026020010181815250506005821115610873577f00000000000000000000000000000000000000000000000000000000000000008160058151811061221857fe5b6020026020010181815250506006821115610873577f00000000000000000000000000000000000000000000000000000000000000008160068151811061225b57fe5b6020026020010181815250506007821115610873577f0000000000000000000000000000000000000000000000000000000000000000816007815181106119e957fe5b60008060006122b6866122b16000610bae565b613056565b90506000806122c48761307c565b915091506122d4868385016130ec565b9890975095505050505050565b60006060806122ee612050565b90506000806122fd8a84612cac565b91509150600060606123138e8d878c888d613109565b9092509050611d23838d838888611d1e81896114c4565b815181516123399082906114b3565b60005b81811015611da05761237484828151811061235357fe5b602002602001015184838151811061236757fe5b6020026020010151613185565b84828151811061238057fe5b602090810291909101015260010161233c565b60007f00000000000000000000000000000000000000000000000000000000000000006001600160a01b0316826001600160a01b031614156123de576123d7612a09565b9050610c40565b7f00000000000000000000000000000000000000000000000000000000000000006001600160a01b0316826001600160a01b03161415612420576123d7612a2d565b7f00000000000000000000000000000000000000000000000000000000000000006001600160a01b0316826001600160a01b03161415612462576123d7612a51565b7f00000000000000000000000000000000000000000000000000000000000000006001600160a01b0316826001600160a01b031614156124a4576123d7612a75565b7f00000000000000000000000000000000000000000000000000000000000000006001600160a01b0316826001600160a01b031614156124e6576123d7612a99565b7f00000000000000000000000000000000000000000000000000000000000000006001600160a01b0316826001600160a01b03161415612528576123d7612abd565b7f00000000000000000000000000000000000000000000000000000000000000006001600160a01b0316826001600160a01b0316141561256a576123d7612ae1565b7f00000000000000000000000000000000000000000000000000000000000000006001600160a01b0316826001600160a01b031614156125ac576123d7612b05565b610c40610135611f3d565b6000610aa58383612f54565b6000806125d86125d1610b64565b84906131d3565b9050610aa58382611520565b600061260f836125f7866020015161320f565b84612605886040015161320f565b8860600151613519565b949350505050565b6000610aa58383612dc3565b600061260f83612636866020015161320f565b84612644886040015161320f565b8860600151613594565b6000610aa58383613185565b600061065861266f61266a610b64565b61360a565b8390613185565b6000612680610e7d565b6001600160a01b031663aaabadc56040518163ffffffff1660e01b815260040160206040518083038186803b1580156126b857600080fd5b505afa1580156126cc573d6000803e3d6000fd5b505050506040513d601f19601f820116820180604052508101906107229190615789565b60085490565b1c60019081161490565b670de0b6b3a764000060005b83518110156127625761275861275185838151811061272757fe5b602002602001015185848151811061273b57fe5b602002602001015161363090919063ffffffff16565b8390612f54565b915060010161270c565b5061065860008211610137611a1e565b60408051604180825260808201909252606091829190602082018180368337019050509050836020820152826040820152846060820153949350505050565b60006127bc856136e1565b90506127d26127cc8783876136fd565b83611a1e565b6127e1428410156101b8611a1e565b5050506001600160a01b039092166000908152600660205260409020805460010190555050565b600060606128146137ac565b6128305761283061282b612826612050565b6137d0565b612a04565b61283d8787878787613a33565b915091509550959350505050565b620f424090565b6114c08282613ac3565b6001600160a01b03918216600090815260016020908152604080832093909416825291909152205490565b60007f00000000000000000000000000000000000000000000000000000000000000007f00000000000000000000000000000000000000000000000000000000000000007f00000000000000000000000000000000000000000000000000000000000000006128f4613b56565b30604051602001612909959493929190615c55565b60405160208183030381529060405280519060200120905090565b61293361010083106064611a1e565b61295c60018210158015612955575061295160ff8461010003611536565b8211155b6064611a1e565b61160983821c156101b4611a1e565b60028151101561297a57610ade565b60008160008151811061298957fe5b602002602001015190506000600190505b82518110156116095760008382815181106129b157fe5b602002602001015190506129da816001600160a01b0316846001600160a01b0316106065611a1e565b915060010161299a565b8015610ade57610ade6129f5611163565b82612852565b610ade81613b5a565b600a55565b7f000000000000000000000000000000000000000000000000000000000000000090565b7f000000000000000000000000000000000000000000000000000000000000000090565b7f000000000000000000000000000000000000000000000000000000000000000090565b7f000000000000000000000000000000000000000000000000000000000000000090565b7f000000000000000000000000000000000000000000000000000000000000000090565b7f000000000000000000000000000000000000000000000000000000000000000090565b7f000000000000000000000000000000000000000000000000000000000000000090565b7f000000000000000000000000000000000000000000000000000000000000000090565b6000612b388484111583611a1e565b5050900390565b600073ba1ba1ba1ba1ba1ba1ba1ba1ba1ba1ba1ba1ba1b612b5e610e59565b6001600160a01b031614158015612b795750612b7983613b7a565b15612ba157612b86610e59565b6001600160a01b0316336001600160a01b0316149050610658565b612ba9612676565b6001600160a01b0316639be2a8848484306040518463ffffffff1660e01b8152600401612bd893929190615b7c565b60206040518083038186803b158015612bf057600080fd5b505afa158015612c04573d6000803e3d6000fd5b505050506040513d601f19601f8201168201806040525081019061136b9190615614565b64e8d4a5100090565b67016345785d8a000090565b60006001821b1984168284612c53576000612c56565b60015b60ff16901b17949350505050565b612c74612c6f6110a6565b6129fb565b612c7c6137ac565b6106e7576000612c8a610aac565b90506000612c99612826612050565b9050818111156114c0576114c081612a04565b6000806000612cb96106e9565b90506000612cc78587612700565b9050600080612cd783888661229e565b90925090508015612ceb57612ceb81612a04565b612cf4826129e4565b612cfe84836114c4565b989297509195505050505050565b600060606000612d1b84613b85565b90506000816003811115612d2b57fe5b1415612d4757612d3d88888787613b9b565b9250925050612d94565b6001816003811115612d5557fe5b1415612d6657612d3d888686613c6a565b6002816003811115612d7457fe5b1415612d8757612d3d8888888888613c88565b612d92610150611f3d565b505b965096945050505050565b6000612daf878787878787613ce7565b9050612dba816129e4565b50505050505050565b6000612dd28215156004611a1e565b82612ddf57506000610658565b670de0b6b3a764000083810290612e0290858381612df957fe5b04146005611a1e565b828181612e0b57fe5b04915050610658565b7f08c379a000000000000000000000000000000000000000000000000000000000600090815260206004526007602452600a808404818106603090810160081b958390069590950190829004918206850160101b01602363ffffff0060e086901c160160181b0190930160c81b60445260e882901c90606490fd5b600081806020019051810190610aa591906159ea565b60606000612eb38385612dc3565b9050845167ffffffffffffffff81118015612ecd57600080fd5b50604051908082528060200260200182016040528015612ef7578160200160208202803683370190505b50915060005b8551811015612f4b57612f2c82878381518110612f1657fe5b6020026020010151612f5490919063ffffffff16565b838281518110612f3857fe5b6020908102919091010152600101612efd565b50509392505050565b6000828202612f78841580612f71575083858381612f6e57fe5b04145b6003611a1e565b670de0b6b3a764000090049392505050565b612fa16001600160a01b038316151561019b611a1e565b612fad82600083611609565b6001600160a01b038216600090815260208190526040902054612fd390826101b2612b29565b6001600160a01b03831660009081526020819052604090205561300661300182612ffb6106e9565b90613de0565b613dee565b60006001600160a01b0316826001600160a01b03167fddf252ad1be2c89b69c2b068fc378daa952ba7f163c4a11628f55a4df523b3ef8360405161304a9190615b73565b60405180910390a35050565b6000610aa561306d61306661106b565b8590612dc3565b670de0b6b3a764000084613df3565b6000806130876137ac565b15613097575060009050806130e7565b600a5460006130a5856137d0565b90508181116130bc576000809350935050506130e7565b6130e16130c98284612dc3565b670de0b6b3a76400006130dc6002610bae565b613df3565b93509150505b915091565b6000610aa56130fb8484613e3a565b6131048461360a565b613e54565b60006060600061311884613b85565b9050600181600381111561312857fe5b141561313b57612d3d8888888888613e74565b600281600381111561314957fe5b141561315b57612d3d88888787613ec4565b600381600381111561316957fe5b141561317a57612d3d888686613f22565b612d92610136611f3d565b60006131948215156004611a1e565b826131a157506000610658565b670de0b6b3a7640000838102906131bb90858381612df957fe5b8260018203816131c757fe5b04600101915050610658565b60008282026131ed841580612f71575083858381612f6e57fe5b806131fc576000915050610658565b670de0b6b3a764000060001982016131c7565b60007f00000000000000000000000000000000000000000000000000000000000000006001600160a01b0316826001600160a01b0316141561327257507f0000000000000000000000000000000000000000000000000000000000000000610c40565b7f00000000000000000000000000000000000000000000000000000000000000006001600160a01b0316826001600160a01b031614156132d357507f0000000000000000000000000000000000000000000000000000000000000000610c40565b7f00000000000000000000000000000000000000000000000000000000000000006001600160a01b0316826001600160a01b0316141561333457507f0000000000000000000000000000000000000000000000000000000000000000610c40565b7f00000000000000000000000000000000000000000000000000000000000000006001600160a01b0316826001600160a01b0316141561339557507f0000000000000000000000000000000000000000000000000000000000000000610c40565b7f00000000000000000000000000000000000000000000000000000000000000006001600160a01b0316826001600160a01b031614156133f657507f0000000000000000000000000000000000000000000000000000000000000000610c40565b7f00000000000000000000000000000000000000000000000000000000000000006001600160a01b0316826001600160a01b0316141561345757507f0000000000000000000000000000000000000000000000000000000000000000610c40565b7f00000000000000000000000000000000000000000000000000000000000000006001600160a01b0316826001600160a01b031614156134b857507f0000000000000000000000000000000000000000000000000000000000000000610c40565b7f00000000000000000000000000000000000000000000000000000000000000006001600160a01b0316826001600160a01b031614156125ac57507f0000000000000000000000000000000000000000000000000000000000000000610c40565b600061353b61353087670429d069189e0000612f54565b831115610130611a1e565b600061354787846114c4565b905060006135558883613185565b905060006135638887612dc3565b905060006135718383613f40565b905061358661357f8261360a565b8990612f54565b9a9950505050505050505050565b60006135b66135ab85670429d069189e0000612f54565b831115610131611a1e565b60006135cc6135c58685611520565b8690613185565b905060006135da8588613185565b905060006135e88383613f40565b905060006135fe82670de0b6b3a7640000611520565b90506135868a826131d3565b6000670de0b6b3a76400008210613622576000610658565b50670de0b6b3a76400000390565b6000670de0b6b3a7640000821415613649575081610658565b671bc16d674ec800008214156136635761136b8384612f54565b673782dace9d90000082141561369357600061367f8485612f54565b905061368b8182612f54565b915050610658565b600061369f8484613fc6565b905060006136b96136b2836127106131d3565b60016114c4565b9050808210156136ce57600092505050610658565b6136d88282611520565b92505050610658565b60006136eb612887565b82604051602001610dda929190615a81565b600061370f82516041146101b9611a1e565b60208281015160408085015160608601518251600080825295019283905292939092811a91600190613748908990859088908890615c81565b6020604051602081039080840390855afa15801561376a573d6000803e3d6000fd5b5050604051601f1901519150506001600160a01b038116158015906137a05750876001600160a01b0316816001600160a01b0316145b98975050505050505050565b7f000000000000000000000000000000000000000000000000000000000000000090565b8051600090816138566138138583856137e557fe5b60200260200101517f00000000000000000000000000000000000000000000000000000000000000006140dc565b6138518660018151811061382357fe5b60200260200101517f00000000000000000000000000000000000000000000000000000000000000006140dc565b612f54565b905060028211156138b0576138a96138a28560028151811061387457fe5b60200260200101517f00000000000000000000000000000000000000000000000000000000000000006140dc565b8290612f54565b90506138b9565b9150610c409050565b60038211156138b0576139036138a2856003815181106138d557fe5b60200260200101517f00000000000000000000000000000000000000000000000000000000000000006140dc565b905060048211156138b05761394f6138a28560048151811061392157fe5b60200260200101517f00000000000000000000000000000000000000000000000000000000000000006140dc565b905060058211156138b05761399b6138a28560058151811061396d57fe5b60200260200101517f00000000000000000000000000000000000000000000000000000000000000006140dc565b905060068211156138b0576139e76138a2856006815181106139b957fe5b60200260200101517f00000000000000000000000000000000000000000000000000000000000000006140dc565b90506007821115610aa55761260f6138a285600781518110613a0557fe5b60200260200101517f00000000000000000000000000000000000000000000000000000000000000006140dc565b600060606000613a4284613b85565b9050613a5d6000826003811115613a5557fe5b1460ce611a1e565b6060613a688561417d565b9050613a76815187516114b3565b613a808187611fdd565b6060613a8a612050565b90506000613a988284612700565b90506000613aa7828551613e3a565b9050613ab2826129fb565b9b929a509198505050505050505050565b613acf60008383611609565b613ae461300182613ade6106e9565b906114c4565b6001600160a01b038216600090815260208190526040902054613b0790826114c4565b6001600160a01b0383166000818152602081905260408082209390935591519091907fddf252ad1be2c89b69c2b068fc378daa952ba7f163c4a11628f55a4df523b3ef9061304a908590615b73565b4690565b610ade613b7582600060c0613b6d6126f0565b9291906114d6565b614193565b6000610658826141a8565b60008180602001905181019061065891906157a5565b60006060600080613bab856141b3565b91509150613bbd885182106064611a1e565b6000613bf9898381518110613bce57fe5b6020026020010151898481518110613be257fe5b6020026020010151858a613bf4610b64565b6141d5565b90506060895167ffffffffffffffff81118015613c1557600080fd5b50604051908082528060200260200182016040528015613c3f578160200160208202803683370190505b50905081818481518110613c4f57fe5b60209081029190910101529299929850919650505050505050565b600060606000613c798461428b565b90506060611fc78783886142a1565b60006060806000613c988561433d565b91509150613ca882518a516114b3565b613cb28288611fdd565b6000613cc88a8a858a613cc3610b64565b614355565b9050613cd88282111560cf611a1e565b99919850909650505050505050565b600082821015815b8751811015613d815781613d3257613d2d888281518110613d0c57fe5b6020026020010151888381518110613d2057fe5b6020026020010151613de0565b613d62565b613d62888281518110613d4157fe5b6020026020010151888381518110613d5557fe5b60200260200101516114c4565b888281518110613d6e57fe5b6020908102919091010152600101613cef565b506000613d8e8689612700565b90506000613d9c6000610bae565b9050613da7826129fb565b80613db85760009350505050613dd6565b6000613dcf613dc7848d612dc3565b888885614493565b9450505050505b9695505050505050565b6000610aa583836001612b29565b600255565b60008383101580613e02575081155b15613e0f57506000610aa5565b6000613e1b8486612dc3565b670de0b6b3a7640000039050613e318184612f54565b95945050505050565b6000828202610aa5841580612f71575083858381612f6e57fe5b6000613e638215156004611a1e565b818381613e6c57fe5b049392505050565b60006060806000613e848561433d565b91509150613e94895183516114b3565b613e9e8288611fdd565b6000613eb48a8a858a613eaf610b64565b6144b6565b9050613cd88282101560d0611a1e565b60006060600080613ed4856141b3565b91509150613ee6885182106064611a1e565b6000613bf9898381518110613ef757fe5b6020026020010151898481518110613f0b57fe5b6020026020010151858a613f1d610b64565b6145f1565b600060606000613f318461428b565b90506060611fc7878388614687565b6000670de0b6b3a7640000821415613f59575081610658565b671bc16d674ec80000821415613f735761136b83846131d3565b673782dace9d900000821415613f9b576000613f8f84856131d3565b905061368b81826131d3565b6000613fa78484613fc6565b90506000613fba6136b2836127106131d3565b90506136d882826114c4565b600081613fdc5750670de0b6b3a7640000610658565b82613fe957506000610658565b613ff960ff84901c156006611a1e565b8261401f770bce5086492111aea88f4bb1ca6bcf584181ea8059f7653284106007611a1e565b826000670c7d713b49da0000831380156140405750670f43fc2c04ee000083125b1561407757600061405084614719565b9050670de0b6b3a764000080820784020583670de0b6b3a764000083050201915050614085565b8161408184614850565b0290505b670de0b6b3a764000090056140d37ffffffffffffffffffffffffffffffffffffffffffffffffdc702bd3a30fc000082128015906140cc575068070c1cc73b00c800008213155b6008611a1e565b613dd681614bf0565b60006001600160a01b0382161561416d5761416883836001600160a01b031663679aefce6040518163ffffffff1660e01b815260040160206040518083038186803b15801561412a57600080fd5b505afa15801561413e573d6000803e3d6000fd5b505050506040513d601f19601f820116820180604052508101906141629190615634565b90613630565b610aa5565b50670de0b6b3a764000092915050565b606081806020019051810190610aa5919061586b565b6008546141a2908260006150c0565b60085550565b6000610658826150ec565b600080828060200190518101906141ca9190615835565b909590945092505050565b6000806141ec846141e68188611520565b90613185565b90506142056709b6e64a8ec60000821015610132611a1e565b600061422361421c670de0b6b3a764000089612dc3565b8390613f40565b9050600061423a6142338361360a565b8a90612f54565b9050600061425161424a8a61360a565b83906131d3565b9050600061425f8383611520565b9050600061426f6125d18961360a565b905061427b82826114c4565b9c9b505050505050505050505050565b600081806020019051810190610aa59190615808565b606060006142af8484612dc3565b90506060855167ffffffffffffffff811180156142cb57600080fd5b506040519080825280602002602001820160405280156142f5578160200160208202803683370190505b50905060005b86518110156143335761431483888381518110612f1657fe5b82828151811061432057fe5b60209081029190910101526001016142fb565b5095945050505050565b60606000828060200190518101906141ca91906157c1565b60006060845167ffffffffffffffff8111801561437157600080fd5b5060405190808252806020026020018201604052801561439b578160200160208202803683370190505b5090506000805b8851811015614460576143fb8982815181106143ba57fe5b60200260200101516141e68984815181106143d157fe5b60200260200101518c85815181106143e557fe5b602002602001015161152090919063ffffffff16565b83828151811061440757fe5b60200260200101818152505061445661444f89838151811061442557fe5b602002602001015185848151811061443957fe5b60200260200101516131d390919063ffffffff16565b83906114c4565b91506001016143a2565b50600061447189898986868a615128565b905061448661447f8261360a565b87906131d3565b9998505050505050505050565b6000806144aa866144a48688612dc3565b85613df3565b9050613dd684826130ec565b60006060845167ffffffffffffffff811180156144d257600080fd5b506040519080825280602002602001820160405280156144fc578160200160208202803683370190505b5090506000805b88518110156145aa5761456289828151811061451b57fe5b602002602001015161455c89848151811061453257fe5b60200260200101518c858151811061454657fe5b60200260200101516114c490919063ffffffff16565b90612dc3565b83828151811061456e57fe5b6020026020010181815250506145a061444f89838151811061458c57fe5b6020026020010151858481518110612f1657fe5b9150600101614503565b5060006145bb89898986868a615237565b90506000670de0b6b3a764000082116145d5576000613586565b6135866145ea83670de0b6b3a7640000611520565b8890612f54565b600080614602846141e681886114c4565b905061461b6729a2241af62c0000821115610133611a1e565b600061463261421c670de0b6b3a764000089613185565b9050600061465261464b83670de0b6b3a7640000611520565b8a906131d3565b9050600061466261424a8a61360a565b905060006146708383611520565b9050600061426f6146808961360a565b8490613185565b606060006146958484613185565b90506060855167ffffffffffffffff811180156146b157600080fd5b506040519080825280602002602001820160405280156146db578160200160208202803683370190505b50905060005b8651811015614333576146fa8388838151811061443957fe5b82828151811061470657fe5b60209081029190910101526001016146e1565b670de0b6b3a7640000026000806ec097ce7bc90715b34b9f1000000000808401907fffffffffffffffffffffffffffffffffff3f68318436f8ea4cb460f0000000008501028161476557fe5b05905060006ec097ce7bc90715b34b9f100000000082800205905081806ec097ce7bc90715b34b9f100000000081840205915060038205016ec097ce7bc90715b34b9f100000000082840205915060058205016ec097ce7bc90715b34b9f100000000082840205915060078205016ec097ce7bc90715b34b9f100000000082840205915060098205016ec097ce7bc90715b34b9f1000000000828402059150600b8205016ec097ce7bc90715b34b9f1000000000828402059150600d8205016ec097ce7bc90715b34b9f1000000000828402059150600f826002919005919091010295945050505050565b6000670de0b6b3a764000082121561488d57614883826ec097ce7bc90715b34b9f10000000008161487d57fe5b05614850565b6000039050610c40565b60007e1600ef3172e58d2e933ec884fde10064c63b5372d805e203c000000000000083126148de57770195e54c5dd42177f53a27172fa9ec630262827000000000830592506806f05b59d3b2000000015b73011798004d755d3c8bc8e03204cf44619e0000008312614916576b1425982cf597cd205cef7380830592506803782dace9d9000000015b606492830292026e01855144814a7ff805980ff0084000831261495e576e01855144814a7ff805980ff008400068056bc75e2d63100000840205925068ad78ebc5ac62000000015b6b02df0ab5a80a22c61ab5a7008312614999576b02df0ab5a80a22c61ab5a70068056bc75e2d6310000084020592506856bc75e2d631000000015b693f1fce3da636ea5cf85083126149d057693f1fce3da636ea5cf85068056bc75e2d631000008402059250682b5e3af16b18800000015b690127fa27722cc06cc5e28312614a0757690127fa27722cc06cc5e268056bc75e2d6310000084020592506815af1d78b58c400000015b68280e60114edb805d038312614a3c5768280e60114edb805d0368056bc75e2d631000008402059250680ad78ebc5ac6200000015b680ebc5fb417461211108312614a6757680ebc5fb4174612111068056bc75e2d631000009384020592015b6808f00f760a4b2db55d8312614a9c576808f00f760a4b2db55d68056bc75e2d6310000084020592506802b5e3af16b1880000015b6806f5f17757889379378312614ad1576806f5f177578893793768056bc75e2d63100000840205925068015af1d78b58c40000015b6806248f33704b2866038312614b05576806248f33704b28660368056bc75e2d63100000840205925067ad78ebc5ac620000015b6805c548670b9510e7ac8312614b39576805c548670b9510e7ac68056bc75e2d6310000084020592506756bc75e2d6310000015b600068056bc75e2d63100000840168056bc75e2d631000008086030281614b5c57fe5b059050600068056bc75e2d63100000828002059050818068056bc75e2d63100000818402059150600382050168056bc75e2d63100000828402059150600582050168056bc75e2d63100000828402059150600782050168056bc75e2d63100000828402059150600982050168056bc75e2d63100000828402059150600b820501600202606485820105979650505050505050565b6000614c357ffffffffffffffffffffffffffffffffffffffffffffffffdc702bd3a30fc00008312158015614c2e575068070c1cc73b00c800008313155b6009611a1e565b6000821215614c6957614c4a82600003614bf0565b6ec097ce7bc90715b34b9f100000000081614c6157fe5b059050610c40565b60006806f05b59d3b20000008312614cbf57507ffffffffffffffffffffffffffffffffffffffffffffffff90fa4a62c4e00000090910190770195e54c5dd42177f53a27172fa9ec630262827000000000614d0b565b6803782dace9d90000008312614d0757507ffffffffffffffffffffffffffffffffffffffffffffffffc87d2531627000000909101906b1425982cf597cd205cef7380614d0b565b5060015b6064929092029168056bc75e2d6310000068ad78ebc5ac620000008412614d71577fffffffffffffffffffffffffffffffffffffffffffffff5287143a539e0000009093019268056bc75e2d631000006e01855144814a7ff805980ff008400082020590505b6856bc75e2d6310000008412614dc3577fffffffffffffffffffffffffffffffffffffffffffffffa9438a1d29cf0000009093019268056bc75e2d631000006b02df0ab5a80a22c61ab5a70082020590505b682b5e3af16b188000008412614e13577fffffffffffffffffffffffffffffffffffffffffffffffd4a1c50e94e78000009093019268056bc75e2d63100000693f1fce3da636ea5cf85082020590505b6815af1d78b58c4000008412614e63577fffffffffffffffffffffffffffffffffffffffffffffffea50e2874a73c000009093019268056bc75e2d63100000690127fa27722cc06cc5e282020590505b680ad78ebc5ac62000008412614eb2577ffffffffffffffffffffffffffffffffffffffffffffffff5287143a539e000009093019268056bc75e2d6310000068280e60114edb805d0382020590505b68056bc75e2d631000008412614f01577ffffffffffffffffffffffffffffffffffffffffffffffffa9438a1d29cf000009093019268056bc75e2d63100000680ebc5fb4174612111082020590505b6802b5e3af16b18800008412614f50577ffffffffffffffffffffffffffffffffffffffffffffffffd4a1c50e94e7800009093019268056bc75e2d631000006808f00f760a4b2db55d82020590505b68015af1d78b58c400008412614f9f577ffffffffffffffffffffffffffffffffffffffffffffffffea50e2874a73c00009093019268056bc75e2d631000006806f5f177578893793782020590505b68056bc75e2d631000008481019085906002908280020505918201919050600368056bc75e2d631000008783020505918201919050600468056bc75e2d631000008783020505918201919050600568056bc75e2d631000008783020505918201919050600668056bc75e2d631000008783020505918201919050600768056bc75e2d631000008783020505918201919050600868056bc75e2d631000008783020505918201919050600968056bc75e2d631000008783020505918201919050600a68056bc75e2d631000008783020505918201919050600b68056bc75e2d631000008783020505918201919050600c68056bc75e2d631000008783020505918201919050606468056bc75e2d63100000848402058502059695505050505050565b77ffffffffffffffffffffffffffffffffffffffffffffffff828116821b90821b198416179392505050565b60006151177f38e9922e00000000000000000000000000000000000000000000000000000000610da5565b821480610658575061065882615322565b670de0b6b3a764000060005b875181101561522c57600085828151811061514b57fe5b60200260200101518511156151ae5760006151746151688761360a565b8b8581518110612f1657fe5b90506000615188828a86815181106143e557fe5b9050600061519861266f8861360a565b90506151a483826114c4565b93505050506151c5565b8682815181106151ba57fe5b602002602001015190505b60006151ee8a84815181106151d657fe5b602002602001015161455c848d87815181106143e557fe5b90506152206152198a858151811061520257fe5b60200260200101518361363090919063ffffffff16565b8590612f54565b93505050600101615134565b509695505050505050565b670de0b6b3a764000060005b875181101561522c5760008486838151811061525b57fe5b602002602001015111156152c257600061528061516887670de0b6b3a7640000611520565b90506000615294828a86815181106143e557fe5b905060006152a282886131d3565b90506152b86152b18383611520565b84906114c4565b93505050506152d9565b8682815181106152ce57fe5b602002602001015190505b60006153028a84815181106152ea57fe5b602002602001015161455c848d878151811061454657fe5b90506153166152198a858151811061520257fe5b93505050600101615243565b50600090565b803561065881615d80565b600082601f830112615343578081fd5b815161535661535182615d54565b615d2d565b81815291506020808301908481018184028601820187101561537757600080fd5b60005b848110156153965781518452928201929082019060010161537a565b505050505092915050565b600082601f8301126153b1578081fd5b813567ffffffffffffffff8111156153c7578182fd5b6153da6020601f19601f84011601615d2d565b91508082528360208285010111156153f157600080fd5b8060208401602084013760009082016020015292915050565b80356002811061065857600080fd5b60006020828403121561542a578081fd5b8135610aa581615d80565b60008060408385031215615447578081fd5b823561545281615d80565b9150602083013561546281615d80565b809150509250929050565b600080600060608486031215615481578081fd5b833561548c81615d80565b9250602084013561549c81615d80565b929592945050506040919091013590565b600080600080600080600060e0888a0312156154c7578283fd5b87356154d281615d80565b965060208801356154e281615d80565b95506040880135945060608801359350608088013561550081615da2565b9699959850939692959460a0840135945060c09093013592915050565b6000806040838503121561552f578182fd5b823561553a81615d80565b946020939093013593505050565b60008060006060848603121561555c578081fd5b835167ffffffffffffffff80821115615573578283fd5b818601915086601f830112615586578283fd5b815161559461535182615d54565b80828252602080830192508086018b8283870289010111156155b4578788fd5b8796505b848710156155df5780516155cb81615d80565b8452600196909601959281019281016155b8565b5089015190975093505050808211156155f6578283fd5b5061560386828701615333565b925050604084015190509250925092565b600060208284031215615625578081fd5b81518015158114610aa5578182fd5b600060208284031215615645578081fd5b5051919050565b600080600080600080600060e0888a031215615666578081fd5b8735965060208089013561567981615d80565b9650604089013561568981615d80565b9550606089013567ffffffffffffffff808211156156a5578384fd5b818b0191508b601f8301126156b8578384fd5b81356156c661535182615d54565b8082825285820191508585018f8788860288010111156156e4578788fd5b8795505b838610156157065780358352600195909501949186019186016156e8565b509850505060808b0135955060a08b0135945060c08b013592508083111561572c578384fd5b505061573a8a828b016153a1565b91505092959891949750929550565b60006020828403121561575a578081fd5b81357fffffffff0000000000000000000000000000000000000000000000000000000081168114610aa5578182fd5b60006020828403121561579a578081fd5b8151610aa581615d80565b6000602082840312156157b6578081fd5b8151610aa581615d95565b6000806000606084860312156157d5578081fd5b83516157e081615d95565b602085015190935067ffffffffffffffff8111156157fc578182fd5b61560386828701615333565b6000806040838503121561581a578182fd5b825161582581615d95565b6020939093015192949293505050565b600080600060608486031215615849578081fd5b835161585481615d95565b602085015160409095015190969495509392505050565b6000806040838503121561587d578182fd5b825161588881615d95565b602084015190925067ffffffffffffffff8111156158a4578182fd5b6158b085828601615333565b9150509250929050565b6000806000606084860312156158ce578081fd5b833567ffffffffffffffff808211156158e5578283fd5b81860191506101208083890312156158fb578384fd5b61590481615d2d565b9050615910888461540a565b815261591f8860208501615328565b60208201526159318860408501615328565b6040820152606083013560608201526080830135608082015260a083013560a08201526159618860c08501615328565b60c08201526159738860e08501615328565b60e0820152610100808401358381111561598b578586fd5b6159978a8287016153a1565b9183019190915250976020870135975060409096013595945050505050565b6000602082840312156159c7578081fd5b5035919050565b6000602082840312156159df578081fd5b8151610aa581615da2565b600080604083850312156159fc578182fd5b825161582581615da2565b6000815180845260208085019450808401835b83811015615a3657815187529582019590820190600101615a1a565b509495945050505050565b9182527fffffffff0000000000000000000000000000000000000000000000000000000016602082015260240190565b6000828483379101908152919050565b7f190100000000000000000000000000000000000000000000000000000000000081526002810192909252602282015260420190565b6001600160a01b0391909116815260200190565b6020808252825182820181905260009190848201906040850190845b81811015615b0c5783516001600160a01b031683529284019291840191600101615ae7565b50909695505050505050565b600060208252610aa56020830184615a07565b600060408252615b3e6040830185615a07565b8281036020840152613e318185615a07565b901515815260200190565b92151583526020830191909152604082015260600190565b90815260200190565b9283526001600160a01b03918216602084015216604082015260600190565b9586526001600160a01b0394851660208701529290931660408501526060840152608083019190915260a082015260c00190565b60006060820185835260206060818501528186518084526080860191508288019350845b81811015615c1757615c058551615d74565b83529383019391830191600101615bf3565b505084810360408601528551808252908201925081860190845b818110156114a557615c438351615d74565b85529383019391830191600101615c31565b9485526020850193909352604084019190915260608301526001600160a01b0316608082015260a00190565b93845260ff9290921660208401526040830152606082015260800190565b6020810160038310615cad57fe5b91905290565b6000602080835283518082850152825b81811015615cdf57858101830151858201604001528201615cc3565b81811115615cf05783604083870101525b50601f01601f1916929092016040019392505050565b60008382526040602083015261260f6040830184615a07565b60ff91909116815260200190565b60405181810167ffffffffffffffff81118282101715615d4c57600080fd5b604052919050565b600067ffffffffffffffff821115615d6a578081fd5b5060209081020190565b6001600160a01b031690565b6001600160a01b0381168114610ade57600080fd5b60048110610ade57600080fd5b60ff81168114610ade57600080fdfea264697066735822122095ddca3f456078da249a9cf5a157be923a5fd4b3e0a9fc759d79e44fb397adbb64736f6c63430007010033",
  "linkReferences": {},
  "deployedLinkReferences": {}
}