{
  "_format": "hh-sol-artifact-1",
  "contractName": "ManagedPoolController",
  "sourceName": "contracts/controllers/ManagedPoolController.sol",
  "abi": [
    {
      "inputs": [
        {
          "components": [
            {
              "internalType": "bool",
              "name": "canTransferOwnership",
              "type": "bool"
            },
            {
              "internalType": "bool",
              "name": "canChangeSwapFee",
              "type": "bool"
            },
            {
              "internalType": "bool",
              "name": "canUpdateMetadata",
              "type": "bool"
            }
          ],
          "internalType": "struct BasePoolController.BasePoolRights",
          "name": "baseRights",
          "type": "tuple"
        },
        {
          "components": [
            {
              "internalType": "bool",
              "name": "canChangeWeights",
              "type": "bool"
            },
            {
              "internalType": "bool",
              "name": "canDisableSwaps",
              "type": "bool"
            },
            {
              "internalType": "bool",
              "name": "canSetMustAllowlistLPs",
              "type": "bool"
            },
            {
              "internalType": "bool",
              "name": "canSetCircuitBreakers",
              "type": "bool"
            },
            {
              "internalType": "bool",
              "name": "canChangeTokens",
              "type": "bool"
            },
            {
              "internalType": "bool",
              "name": "canChangeMgmtFees",
              "type": "bool"
            }
          ],
          "internalType": "struct ManagedPoolController.ManagedPoolRights",
          "name": "managedRights",
          "type": "tuple"
        },
        {
          "internalType": "uint256",
          "name": "minWeightChangeDuration",
          "type": "uint256"
        },
        {
          "internalType": "address",
          "name": "manager",
          "type": "address"
        }
      ],
      "stateMutability": "nonpayable",
      "type": "constructor"
    },
    {
      "anonymous": false,
      "inputs": [
        {
          "indexed": false,
          "internalType": "bytes",
          "name": "metadata",
          "type": "bytes"
        }
      ],
      "name": "MetadataUpdated",
      "type": "event"
    },
    {
      "anonymous": false,
      "inputs": [
        {
          "indexed": true,
          "internalType": "address",
          "name": "previousManager",
          "type": "address"
        },
        {
          "indexed": true,
          "internalType": "address",
          "name": "newManager",
          "type": "address"
        }
      ],
      "name": "OwnershipTransferred",
      "type": "event"
    },
    {
      "anonymous": false,
      "inputs": [
        {
          "indexed": true,
          "internalType": "address",
          "name": "oldSwapFeeController",
          "type": "address"
        },
        {
          "indexed": true,
          "internalType": "address",
          "name": "newSwapFeeController",
          "type": "address"
        }
      ],
      "name": "SwapFeeControllerChanged",
      "type": "event"
    },
    {
      "inputs": [
        {
          "internalType": "address",
          "name": "member",
          "type": "address"
        }
      ],
      "name": "addAllowedAddress",
      "outputs": [],
      "stateMutability": "nonpayable",
      "type": "function"
    },
    {
      "inputs": [],
      "name": "canChangeManagementFees",
      "outputs": [
        {
          "internalType": "bool",
          "name": "",
          "type": "bool"
        }
      ],
      "stateMutability": "view",
      "type": "function"
    },
    {
      "inputs": [],
      "name": "canChangeSwapFee",
      "outputs": [
        {
          "internalType": "bool",
          "name": "",
          "type": "bool"
        }
      ],
      "stateMutability": "view",
      "type": "function"
    },
    {
      "inputs": [],
      "name": "canChangeTokens",
      "outputs": [
        {
          "internalType": "bool",
          "name": "",
          "type": "bool"
        }
      ],
      "stateMutability": "view",
      "type": "function"
    },
    {
      "inputs": [],
      "name": "canChangeWeights",
      "outputs": [
        {
          "internalType": "bool",
          "name": "",
          "type": "bool"
        }
      ],
      "stateMutability": "view",
      "type": "function"
    },
    {
      "inputs": [],
      "name": "canDisableSwaps",
      "outputs": [
        {
          "internalType": "bool",
          "name": "",
          "type": "bool"
        }
      ],
      "stateMutability": "view",
      "type": "function"
    },
    {
      "inputs": [],
      "name": "canSetCircuitBreakers",
      "outputs": [
        {
          "internalType": "bool",
          "name": "",
          "type": "bool"
        }
      ],
      "stateMutability": "view",
      "type": "function"
    },
    {
      "inputs": [],
      "name": "canSetMustAllowlistLPs",
      "outputs": [
        {
          "internalType": "bool",
          "name": "",
          "type": "bool"
        }
      ],
      "stateMutability": "view",
      "type": "function"
    },
    {
      "inputs": [],
      "name": "canTransferOwnership",
      "outputs": [
        {
          "internalType": "bool",
          "name": "",
          "type": "bool"
        }
      ],
      "stateMutability": "view",
      "type": "function"
    },
    {
      "inputs": [],
      "name": "canUpdateMetadata",
      "outputs": [
        {
          "internalType": "bool",
          "name": "",
          "type": "bool"
        }
      ],
      "stateMutability": "view",
      "type": "function"
    },
    {
      "inputs": [],
      "name": "claimOwnership",
      "outputs": [],
      "stateMutability": "nonpayable",
      "type": "function"
    },
    {
      "inputs": [
        {
          "components": [
            {
              "internalType": "bool",
              "name": "canTransferOwnership",
              "type": "bool"
            },
            {
              "internalType": "bool",
              "name": "canChangeSwapFee",
              "type": "bool"
            },
            {
              "internalType": "bool",
              "name": "canUpdateMetadata",
              "type": "bool"
            }
          ],
          "internalType": "struct BasePoolController.BasePoolRights",
          "name": "rights",
          "type": "tuple"
        }
      ],
      "name": "encodePermissions",
      "outputs": [
        {
          "internalType": "bytes32",
          "name": "",
          "type": "bytes32"
        }
      ],
      "stateMutability": "pure",
      "type": "function"
    },
    {
      "inputs": [
        {
          "components": [
            {
              "internalType": "bool",
              "name": "canTransferOwnership",
              "type": "bool"
            },
            {
              "internalType": "bool",
              "name": "canChangeSwapFee",
              "type": "bool"
            },
            {
              "internalType": "bool",
              "name": "canUpdateMetadata",
              "type": "bool"
            }
          ],
          "internalType": "struct BasePoolController.BasePoolRights",
          "name": "baseRights",
          "type": "tuple"
        },
        {
          "components": [
            {
              "internalType": "bool",
              "name": "canChangeWeights",
              "type": "bool"
            },
            {
              "internalType": "bool",
              "name": "canDisableSwaps",
              "type": "bool"
            },
            {
              "internalType": "bool",
              "name": "canSetMustAllowlistLPs",
              "type": "bool"
            },
            {
              "internalType": "bool",
              "name": "canSetCircuitBreakers",
              "type": "bool"
            },
            {
              "internalType": "bool",
              "name": "canChangeTokens",
              "type": "bool"
            },
            {
              "internalType": "bool",
              "name": "canChangeMgmtFees",
              "type": "bool"
            }
          ],
          "internalType": "struct ManagedPoolController.ManagedPoolRights",
          "name": "managedRights",
          "type": "tuple"
        }
      ],
      "name": "encodePermissions",
      "outputs": [
        {
          "internalType": "bytes32",
          "name": "",
          "type": "bytes32"
        }
      ],
      "stateMutability": "pure",
      "type": "function"
    },
    {
      "inputs": [],
      "name": "getManager",
      "outputs": [
        {
          "internalType": "address",
          "name": "",
          "type": "address"
        }
      ],
      "stateMutability": "view",
      "type": "function"
    },
    {
      "inputs": [],
      "name": "getManagerCandidate",
      "outputs": [
        {
          "internalType": "address",
          "name": "",
          "type": "address"
        }
      ],
      "stateMutability": "view",
      "type": "function"
    },
    {
      "inputs": [],
      "name": "getMetadata",
      "outputs": [
        {
          "internalType": "bytes",
          "name": "",
          "type": "bytes"
        }
      ],
      "stateMutability": "view",
      "type": "function"
    },
    {
      "inputs": [],
      "name": "getMinWeightChangeDuration",
      "outputs": [
        {
          "internalType": "uint256",
          "name": "",
          "type": "uint256"
        }
      ],
      "stateMutability": "view",
      "type": "function"
    },
    {
      "inputs": [],
      "name": "getSwapFeeController",
      "outputs": [
        {
          "internalType": "address",
          "name": "",
          "type": "address"
        }
      ],
      "stateMutability": "view",
      "type": "function"
    },
    {
      "inputs": [
        {
          "internalType": "address",
          "name": "poolAddress",
          "type": "address"
        }
      ],
      "name": "initialize",
      "outputs": [],
      "stateMutability": "nonpayable",
      "type": "function"
    },
    {
      "inputs": [],
      "name": "pool",
      "outputs": [
        {
          "internalType": "address",
          "name": "",
          "type": "address"
        }
      ],
      "stateMutability": "view",
      "type": "function"
    },
    {
      "inputs": [
        {
          "internalType": "address",
          "name": "member",
          "type": "address"
        }
      ],
      "name": "removeAllowedAddress",
      "outputs": [],
      "stateMutability": "nonpayable",
      "type": "function"
    },
    {
      "inputs": [
        {
          "internalType": "uint256",
          "name": "managementAumFeePercentage",
          "type": "uint256"
        }
      ],
      "name": "setManagementAumFeePercentage",
      "outputs": [
        {
          "internalType": "uint256",
          "name": "",
          "type": "uint256"
        }
      ],
      "stateMutability": "nonpayable",
      "type": "function"
    },
    {
      "inputs": [
        {
          "internalType": "bool",
          "name": "mustAllowlistLPs",
          "type": "bool"
        }
      ],
      "name": "setMustAllowlistLPs",
      "outputs": [],
      "stateMutability": "nonpayable",
      "type": "function"
    },
    {
      "inputs": [
        {
          "internalType": "bool",
          "name": "swapEnabled",
          "type": "bool"
        }
      ],
      "name": "setSwapEnabled",
      "outputs": [],
      "stateMutability": "nonpayable",
      "type": "function"
    },
    {
      "inputs": [
        {
          "internalType": "address",
          "name": "newSwapFeeController",
          "type": "address"
        }
      ],
      "name": "setSwapFeeController",
      "outputs": [],
      "stateMutability": "nonpayable",
      "type": "function"
    },
    {
      "inputs": [
        {
          "internalType": "address",
          "name": "newManager",
          "type": "address"
        }
      ],
      "name": "transferOwnership",
      "outputs": [],
      "stateMutability": "nonpayable",
      "type": "function"
    },
    {
      "inputs": [
        {
          "internalType": "bytes",
          "name": "metadata",
          "type": "bytes"
        }
      ],
      "name": "updateMetadata",
      "outputs": [],
      "stateMutability": "nonpayable",
      "type": "function"
    },
    {
      "inputs": [
        {
          "internalType": "uint256",
          "name": "startTime",
          "type": "uint256"
        },
        {
          "internalType": "uint256",
          "name": "endTime",
          "type": "uint256"
        },
        {
          "internalType": "contract IERC20[]",
          "name": "tokens",
          "type": "address[]"
        },
        {
          "internalType": "uint256[]",
          "name": "endWeights",
          "type": "uint256[]"
        }
      ],
      "name": "updateWeightsGradually",
      "outputs": [],
      "stateMutability": "nonpayable",
      "type": "function"
    },
    {
      "inputs": [
        {
          "internalType": "address",
          "name": "recipient",
          "type": "address"
        }
      ],
      "name": "withdrawCollectedManagementFees",
      "outputs": [],
      "stateMutability": "nonpayable",
      "type": "function"
    }
  ],
  "bytecode": "0x60c06040523480156200001157600080fd5b5060405162001ae738038062001ae78339810160408190526200003491620001bd565b620000408484620000ab565b6080819052600080546001600160a01b0319166001600160a01b038416179055816200007a8260016200013d602090811b62000f2017901c565b156200009c57600280546001600160a01b0319166001600160a01b0383161790555b50505060a05250620003099050565b600080620000fa83604001516005620000e586602001516004620000e589600001516003620000e58d6200014460201b620004201760201c565b6200018560201b62000f27179092919060201c565b90506200013383606001516006620000e586608001516007620000e58960a001516008896200018560201b62000f27179092919060201c565b9150505b92915050565b1c60011690565b6000806200017e83604001516002620000e586602001516001620000e589600001516000896200018560201b62000f27179092919060201c565b9392505050565b6001811b1992909216911b1790565b80516001600160a01b03811681146200013757600080fd5b805180151581146200013757600080fd5b600080600080848603610160811215620001d5578485fd5b6060811215620001e3578485fd5b620001ef6060620002e2565b620001fb8888620001ac565b81526200020c8860208901620001ac565b6020820152620002208860408901620001ac565b6040820152945060c0605f198201121562000239578384fd5b506200024660c0620002e2565b620002558760608801620001ac565b8152620002668760808801620001ac565b60208201526200027a8760a08801620001ac565b60408201526200028e8760c08801620001ac565b6060820152620002a28760e08801620001ac565b6080820152620002b7876101008801620001ac565b60a08201526101208601519093509150620002d786610140870162000194565b905092959194509250565b6040518181016001600160401b03811182821017156200030157600080fd5b604052919050565b60805160a05161178d6200035a600039806109815280610bba52508061039052806103c252806106b65280610a4f5280610ade5280610be35280610d695280610d965280610dc3525061178d6000f3fe608060405234801561001057600080fd5b50600436106101ce5760003560e01c8063914645ee11610104578063c4d66de8116100a2578063de1a10ef11610071578063de1a10ef14610348578063e01af92c14610350578063f2fde38b14610363578063fc582d4114610376576101ce565b8063c4d66de81461031d578063d500958414610330578063d69c843214610338578063dd7b9f0714610340576101ce565b8063baca2866116100de578063baca2866146102f2578063bc6b90de14610305578063be14edbb1461030d578063c34e58ed14610315576101ce565b8063914645ee146102cf578063a5f43597146102d7578063a9cbee9c146102ea576101ce565b80634e71e0c8116101715780637a5b4f591161014b5780637a5b4f59146102815780637b749c451461029657806381788e2b146102a9578063819c70f3146102bc576101ce565b80634e71e0c81461025e5780635ad32a74146102665780635b77155e1461026e576101ce565b806317eca279116101ad57806317eca2791461020e57806326b6264d146102165780632a9a0323146102365780633c9d93b814610249576101ce565b8062d499c2146101d35780630facaef3146101f157806316f0115b146101f9575b600080fd5b6101db610389565b6040516101e891906115bb565b60405180910390f35b6101db6103bb565b6102016103e8565b6040516101e89190611574565b610201610404565b6102296102243660046113b8565b610420565b6040516101e891906115c6565b6102296102443660046114a8565b61045f565b61025c6102573660046112a1565b610555565b005b61025c6105f4565b6101db6106af565b61025c61027c3660046112a1565b6106dc565b6102896107bf565b6040516101e891906115cf565b61025c6102a43660046112d9565b610873565b61025c6102b73660046112a1565b6108e8565b61025c6102ca3660046114d8565b610952565b6101db610a48565b6102296102e53660046113d3565b610a75565b6101db610ad7565b61025c6103003660046112a1565b610b04565b610229610bb8565b6101db610bdc565b610201610c09565b61025c61032b3660046112a1565b610c25565b610201610d46565b6101db610d62565b6101db610d8f565b6101db610dbc565b61025c61035e3660046112d9565b610de8565b61025c6103713660046112a1565b610e5d565b61025c610384366004611311565b610ebb565b60006103b67f00000000000000000000000000000000000000000000000000000000000000006004610f20565b905090565b60006103b67f00000000000000000000000000000000000000000000000000000000000000006002610f20565b60035473ffffffffffffffffffffffffffffffffffffffff1681565b60015473ffffffffffffffffffffffffffffffffffffffff1690565b60008061045883604001516002610451866020015160016104518960000151600089610f279092919063ffffffff16565b9190610f27565b9392505050565b600061048c3361046d610d46565b73ffffffffffffffffffffffffffffffffffffffff16146101aa610f36565b610494610f48565b6104a761049f6106af565b610158610f36565b6003546040517f2a9a032300000000000000000000000000000000000000000000000000000000815273ffffffffffffffffffffffffffffffffffffffff90911690632a9a0323906104fd9085906004016115c6565b602060405180830381600087803b15801561051757600080fd5b505af115801561052b573d6000803e3d6000fd5b505050506040513d601f19601f8201168201806040525081019061054f91906114c0565b92915050565b6105613361046d610d46565b610569610f48565b6003546040517f3c9d93b800000000000000000000000000000000000000000000000000000000815273ffffffffffffffffffffffffffffffffffffffff90911690633c9d93b8906105bf908490600401611574565b600060405180830381600087803b1580156105d957600080fd5b505af11580156105ed573d6000803e3d6000fd5b5050505050565b60015473ffffffffffffffffffffffffffffffffffffffff1661061b338214610191610f36565b6000805460405173ffffffffffffffffffffffffffffffffffffffff808516939216917f8be0079c531659141344cd1fd0a4f28419497f9722a3daafe3b4186f6b6457e091a36000805473ffffffffffffffffffffffffffffffffffffffff9092167fffffffffffffffffffffffff0000000000000000000000000000000000000000928316179055600180549091169055565b60006103b67f00000000000000000000000000000000000000000000000000000000000000006008610f20565b6106e83361046d610d46565b6106f0610f48565b6003546040517f70a082310000000000000000000000000000000000000000000000000000000081526107bc91839173ffffffffffffffffffffffffffffffffffffffff909116906370a082319061074c903090600401611574565b60206040518083038186803b15801561076457600080fd5b505afa158015610778573d6000803e3d6000fd5b505050506040513d601f19601f8201168201806040525081019061079c91906114c0565b60035473ffffffffffffffffffffffffffffffffffffffff169190610f71565b50565b60048054604080516020601f60027fffffffffffffffffffffffffffffffffffffffffffffffffffffffffffffffff6101006001881615020190951694909404938401819004810282018101909252828152606093909290918301828280156108695780601f1061083e57610100808354040283529160200191610869565b820191906000526020600020905b81548152906001019060200180831161084c57829003601f168201915b5050505050905090565b61087f3361046d610d46565b610887610f48565b61089261049f610d62565b6003546040517f7b749c4500000000000000000000000000000000000000000000000000000000815273ffffffffffffffffffffffffffffffffffffffff90911690637b749c45906105bf9084906004016115bb565b6108f43361046d610d46565b6108fc610f48565b6003546040517f81788e2b00000000000000000000000000000000000000000000000000000000815273ffffffffffffffffffffffffffffffffffffffff909116906381788e2b906105bf908490600401611574565b61095e3361046d610d46565b610966610f48565b61097161049f610a48565b6109ae8686101580156109a657507f000000000000000000000000000000000000000000000000000000000000000087870310155b61014b610f36565b6003546040517f819c70f300000000000000000000000000000000000000000000000000000000815273ffffffffffffffffffffffffffffffffffffffff9091169063819c70f390610a0e90899089908990899089908990600401611620565b600060405180830381600087803b158015610a2857600080fd5b505af1158015610a3c573d6000803e3d6000fd5b50505050505050505050565b60006103b67f00000000000000000000000000000000000000000000000000000000000000006003610f20565b600080610a9f8360400151600561045186602001516004610451896000015160036104518d610420565b9050610acf83606001516006610451866080015160076104518960a00151600889610f279092919063ffffffff16565b949350505050565b60006103b67f00000000000000000000000000000000000000000000000000000000000000006007610f20565b610b103361046d610d46565b8073ffffffffffffffffffffffffffffffffffffffff16610b2f610c09565b73ffffffffffffffffffffffffffffffffffffffff167f73a2cb0569218bcefc78516c493d730dff015e558df1c4793c67d08d4a33befb60405160405180910390a3600280547fffffffffffffffffffffffff00000000000000000000000000000000000000001673ffffffffffffffffffffffffffffffffffffffff92909216919091179055565b7f000000000000000000000000000000000000000000000000000000000000000090565b60006103b67f00000000000000000000000000000000000000000000000000000000000000006001610f20565b60025473ffffffffffffffffffffffffffffffffffffffff1690565b600354610cff9073ffffffffffffffffffffffffffffffffffffffff16158015610cf757503073ffffffffffffffffffffffffffffffffffffffff168273ffffffffffffffffffffffffffffffffffffffff1663893d20e86040518163ffffffff1660e01b815260040160206040518083038186803b158015610ca757600080fd5b505afa158015610cbb573d6000803e3d6000fd5b505050506040513d601f19601f82011682018060405250810190610cdf91906112bd565b73ffffffffffffffffffffffffffffffffffffffff16145b610156610f36565b600380547fffffffffffffffffffffffff00000000000000000000000000000000000000001673ffffffffffffffffffffffffffffffffffffffff92909216919091179055565b60005473ffffffffffffffffffffffffffffffffffffffff1690565b60006103b67f00000000000000000000000000000000000000000000000000000000000000006005610f20565b60006103b67f00000000000000000000000000000000000000000000000000000000000000006006610f20565b60006103b67f000000000000000000000000000000000000000000000000000000000000000082610f20565b610df43361046d610d46565b610dfc610f48565b610e0761049f610389565b6003546040517fe01af92c00000000000000000000000000000000000000000000000000000000815273ffffffffffffffffffffffffffffffffffffffff9091169063e01af92c906105bf9084906004016115bb565b610e693361046d610d46565b610e7461049f610dbc565b600180547fffffffffffffffffffffffff00000000000000000000000000000000000000001673ffffffffffffffffffffffffffffffffffffffff92909216919091179055565b610ec73361046d610d46565b610ed261049f6103bb565b8051610ee590600490602084019061116f565b507f09f579b21815d3f81581d32e97736ccba1cc89d1918e48da28e6e206acd9686481604051610f1591906115cf565b60405180910390a150565b1c60011690565b6001811b1992909216911b1790565b81610f4457610f4481611017565b5050565b600354610f6f9073ffffffffffffffffffffffffffffffffffffffff161515610159610f36565b565b6110128363a9059cbb60e01b8484604051602401610f90929190611595565b604080517fffffffffffffffffffffffffffffffffffffffffffffffffffffffffffffffe08184030181529190526020810180517bffffffffffffffffffffffffffffffffffffffffffffffffffffffff167fffffffff0000000000000000000000000000000000000000000000000000000090931692909217909152611041565b505050565b6107bc817f42414c00000000000000000000000000000000000000000000000000000000006110f4565b600060608373ffffffffffffffffffffffffffffffffffffffff168360405161106a9190611558565b6000604051808303816000865af19150503d80600081146110a7576040519150601f19603f3d011682016040523d82523d6000602084013e6110ac565b606091505b509150915060008214156110c4573d6000803e3d6000fd5b6110ee8151600014806110e65750818060200190518101906110e691906112f5565b6101a2610f36565b50505050565b7f08c379a000000000000000000000000000000000000000000000000000000000600090815260206004526007602452600a808404818106603090810160081b958390069590950190829004918206850160101b01602363ffffff0060e086901c160160181b0190930160c81b60445260e882901c90606490fd5b828054600181600116156101000203166002900490600052602060002090601f016020900481019282601f106111b057805160ff19168380011785556111dd565b828001600101855582156111dd579182015b828111156111dd5782518255916020019190600101906111c2565b506111e99291506111ed565b5090565b5b808211156111e957600081556001016111ee565b60008083601f840112611213578182fd5b50813567ffffffffffffffff81111561122a578182fd5b602083019150836020808302850101111561124457600080fd5b9250929050565b60006060828403121561125c578081fd5b61126660606116d4565b9050813561127381611749565b8152602082013561128381611749565b6020820152604082013561129681611749565b604082015292915050565b6000602082840312156112b2578081fd5b813561045881611727565b6000602082840312156112ce578081fd5b815161045881611727565b6000602082840312156112ea578081fd5b813561045881611749565b600060208284031215611306578081fd5b815161045881611749565b60006020808385031215611323578182fd5b823567ffffffffffffffff8082111561133a578384fd5b818501915085601f83011261134d578384fd5b81358181111561135b578485fd5b61138b847fffffffffffffffffffffffffffffffffffffffffffffffffffffffffffffffe0601f840116016116d4565b915080825286848285010111156113a0578485fd5b80848401858401378101909201929092529392505050565b6000606082840312156113c9578081fd5b610458838361124b565b6000808284036101208112156113e7578182fd5b6113f1858561124b565b925060c07fffffffffffffffffffffffffffffffffffffffffffffffffffffffffffffffa082011215611422578182fd5b5061142d60c06116d4565b606084013561143b81611749565b8152608084013561144b81611749565b602082015260a084013561145e81611749565b604082015260c084013561147181611749565b606082015260e084013561148481611749565b608082015261010084013561149881611749565b60a0820152919491935090915050565b6000602082840312156114b9578081fd5b5035919050565b6000602082840312156114d1578081fd5b5051919050565b600080600080600080608087890312156114f0578182fd5b8635955060208701359450604087013567ffffffffffffffff80821115611515578384fd5b6115218a838b01611202565b90965094506060890135915080821115611539578384fd5b5061154689828a01611202565b979a9699509497509295939492505050565b6000825161156a8184602087016116fb565b9190910192915050565b73ffffffffffffffffffffffffffffffffffffffff91909116815260200190565b73ffffffffffffffffffffffffffffffffffffffff929092168252602082015260400190565b901515815260200190565b90815260200190565b60006020825282518060208401526115ee8160408501602087016116fb565b601f017fffffffffffffffffffffffffffffffffffffffffffffffffffffffffffffffe0169190910160400192915050565b86815260208082018790526080604083018190528201859052600090869060a08401835b8881101561167f57833561165781611727565b73ffffffffffffffffffffffffffffffffffffffff1682529282019290820190600101611644565b5084810360608601528581527f07ffffffffffffffffffffffffffffffffffffffffffffffffffffffffffffff8611156116b7578384fd5b818602925082878383013790910101908152979650505050505050565b60405181810167ffffffffffffffff811182821017156116f357600080fd5b604052919050565b60005b838110156117165781810151838201526020016116fe565b838111156110ee5750506000910152565b73ffffffffffffffffffffffffffffffffffffffff811681146107bc57600080fd5b80151581146107bc57600080fdfea2646970667358221220a874542349b6f7355f664e6b54361eabfc9ee5370936e2a9da1b999f6c6d459764736f6c63430007010033",
  "linkReferences": {},
  "deployedLinkReferences": {}
}