{
  "_format": "hh-sol-artifact-1",
  "contractName": "ManagedPoolController",
  "sourceName": "contracts/controllers/ManagedPoolController.sol",
  "abi": [
    {
      "inputs": [
        {
          "components": [
            {
              "internalType": "bool",
              "name": "canTransferOwnership",
              "type": "bool"
            },
            {
              "internalType": "bool",
              "name": "canChangeSwapFee",
              "type": "bool"
            },
            {
              "internalType": "bool",
              "name": "canUpdateMetadata",
              "type": "bool"
            }
          ],
          "internalType": "struct BasePoolController.BasePoolRights",
          "name": "baseRights",
          "type": "tuple"
        },
        {
          "components": [
            {
              "internalType": "bool",
              "name": "canChangeWeights",
              "type": "bool"
            },
            {
              "internalType": "bool",
              "name": "canDisableSwaps",
              "type": "bool"
            },
            {
              "internalType": "bool",
              "name": "canSetMustAllowlistLPs",
              "type": "bool"
            },
            {
              "internalType": "bool",
              "name": "canSetCircuitBreakers",
              "type": "bool"
            },
            {
              "internalType": "bool",
              "name": "canChangeTokens",
              "type": "bool"
            },
            {
              "internalType": "bool",
              "name": "canChangeMgmtFees",
              "type": "bool"
            }
          ],
          "internalType": "struct ManagedPoolController.ManagedPoolRights",
          "name": "managedRights",
          "type": "tuple"
        },
        {
          "internalType": "uint256",
          "name": "minWeightChangeDuration",
          "type": "uint256"
        },
        {
          "internalType": "address",
          "name": "manager",
          "type": "address"
        }
      ],
      "stateMutability": "nonpayable",
      "type": "constructor"
    },
    {
      "anonymous": false,
      "inputs": [
        {
          "indexed": false,
          "internalType": "bytes",
          "name": "metadata",
          "type": "bytes"
        }
      ],
      "name": "MetadataUpdated",
      "type": "event"
    },
    {
      "anonymous": false,
      "inputs": [
        {
          "indexed": true,
          "internalType": "address",
          "name": "previousManager",
          "type": "address"
        },
        {
          "indexed": true,
          "internalType": "address",
          "name": "newManager",
          "type": "address"
        }
      ],
      "name": "OwnershipTransferred",
      "type": "event"
    },
    {
      "anonymous": false,
      "inputs": [
        {
          "indexed": true,
          "internalType": "address",
          "name": "oldSwapFeeController",
          "type": "address"
        },
        {
          "indexed": true,
          "internalType": "address",
          "name": "newSwapFeeController",
          "type": "address"
        }
      ],
      "name": "SwapFeeControllerChanged",
      "type": "event"
    },
    {
      "inputs": [
        {
          "internalType": "address",
          "name": "member",
          "type": "address"
        }
      ],
      "name": "addAllowedAddress",
      "outputs": [],
      "stateMutability": "nonpayable",
      "type": "function"
    },
    {
      "inputs": [],
      "name": "canChangeManagementFees",
      "outputs": [
        {
          "internalType": "bool",
          "name": "",
          "type": "bool"
        }
      ],
      "stateMutability": "view",
      "type": "function"
    },
    {
      "inputs": [],
      "name": "canChangeSwapFee",
      "outputs": [
        {
          "internalType": "bool",
          "name": "",
          "type": "bool"
        }
      ],
      "stateMutability": "view",
      "type": "function"
    },
    {
      "inputs": [],
      "name": "canChangeTokens",
      "outputs": [
        {
          "internalType": "bool",
          "name": "",
          "type": "bool"
        }
      ],
      "stateMutability": "view",
      "type": "function"
    },
    {
      "inputs": [],
      "name": "canChangeWeights",
      "outputs": [
        {
          "internalType": "bool",
          "name": "",
          "type": "bool"
        }
      ],
      "stateMutability": "view",
      "type": "function"
    },
    {
      "inputs": [],
      "name": "canDisableSwaps",
      "outputs": [
        {
          "internalType": "bool",
          "name": "",
          "type": "bool"
        }
      ],
      "stateMutability": "view",
      "type": "function"
    },
    {
      "inputs": [],
      "name": "canSetCircuitBreakers",
      "outputs": [
        {
          "internalType": "bool",
          "name": "",
          "type": "bool"
        }
      ],
      "stateMutability": "view",
      "type": "function"
    },
    {
      "inputs": [],
      "name": "canSetMustAllowlistLPs",
      "outputs": [
        {
          "internalType": "bool",
          "name": "",
          "type": "bool"
        }
      ],
      "stateMutability": "view",
      "type": "function"
    },
    {
      "inputs": [],
      "name": "canTransferOwnership",
      "outputs": [
        {
          "internalType": "bool",
          "name": "",
          "type": "bool"
        }
      ],
      "stateMutability": "view",
      "type": "function"
    },
    {
      "inputs": [],
      "name": "canUpdateMetadata",
      "outputs": [
        {
          "internalType": "bool",
          "name": "",
          "type": "bool"
        }
      ],
      "stateMutability": "view",
      "type": "function"
    },
    {
      "inputs": [],
      "name": "claimOwnership",
      "outputs": [],
      "stateMutability": "nonpayable",
      "type": "function"
    },
    {
      "inputs": [
        {
          "components": [
            {
              "internalType": "bool",
              "name": "canTransferOwnership",
              "type": "bool"
            },
            {
              "internalType": "bool",
              "name": "canChangeSwapFee",
              "type": "bool"
            },
            {
              "internalType": "bool",
              "name": "canUpdateMetadata",
              "type": "bool"
            }
          ],
          "internalType": "struct BasePoolController.BasePoolRights",
          "name": "rights",
          "type": "tuple"
        }
      ],
      "name": "encodePermissions",
      "outputs": [
        {
          "internalType": "bytes32",
          "name": "",
          "type": "bytes32"
        }
      ],
      "stateMutability": "pure",
      "type": "function"
    },
    {
      "inputs": [
        {
          "components": [
            {
              "internalType": "bool",
              "name": "canTransferOwnership",
              "type": "bool"
            },
            {
              "internalType": "bool",
              "name": "canChangeSwapFee",
              "type": "bool"
            },
            {
              "internalType": "bool",
              "name": "canUpdateMetadata",
              "type": "bool"
            }
          ],
          "internalType": "struct BasePoolController.BasePoolRights",
          "name": "baseRights",
          "type": "tuple"
        },
        {
          "components": [
            {
              "internalType": "bool",
              "name": "canChangeWeights",
              "type": "bool"
            },
            {
              "internalType": "bool",
              "name": "canDisableSwaps",
              "type": "bool"
            },
            {
              "internalType": "bool",
              "name": "canSetMustAllowlistLPs",
              "type": "bool"
            },
            {
              "internalType": "bool",
              "name": "canSetCircuitBreakers",
              "type": "bool"
            },
            {
              "internalType": "bool",
              "name": "canChangeTokens",
              "type": "bool"
            },
            {
              "internalType": "bool",
              "name": "canChangeMgmtFees",
              "type": "bool"
            }
          ],
          "internalType": "struct ManagedPoolController.ManagedPoolRights",
          "name": "managedRights",
          "type": "tuple"
        }
      ],
      "name": "encodePermissions",
      "outputs": [
        {
          "internalType": "bytes32",
          "name": "",
          "type": "bytes32"
        }
      ],
      "stateMutability": "pure",
      "type": "function"
    },
    {
      "inputs": [],
      "name": "getManager",
      "outputs": [
        {
          "internalType": "address",
          "name": "",
          "type": "address"
        }
      ],
      "stateMutability": "view",
      "type": "function"
    },
    {
      "inputs": [],
      "name": "getManagerCandidate",
      "outputs": [
        {
          "internalType": "address",
          "name": "",
          "type": "address"
        }
      ],
      "stateMutability": "view",
      "type": "function"
    },
    {
      "inputs": [],
      "name": "getMetadata",
      "outputs": [
        {
          "internalType": "bytes",
          "name": "",
          "type": "bytes"
        }
      ],
      "stateMutability": "view",
      "type": "function"
    },
    {
      "inputs": [],
      "name": "getMinWeightChangeDuration",
      "outputs": [
        {
          "internalType": "uint256",
          "name": "",
          "type": "uint256"
        }
      ],
      "stateMutability": "view",
      "type": "function"
    },
    {
      "inputs": [],
      "name": "getSwapFeeController",
      "outputs": [
        {
          "internalType": "address",
          "name": "",
          "type": "address"
        }
      ],
      "stateMutability": "view",
      "type": "function"
    },
    {
      "inputs": [
        {
          "internalType": "address",
          "name": "poolAddress",
          "type": "address"
        }
      ],
      "name": "initialize",
      "outputs": [],
      "stateMutability": "nonpayable",
      "type": "function"
    },
    {
      "inputs": [],
      "name": "pool",
      "outputs": [
        {
          "internalType": "address",
          "name": "",
          "type": "address"
        }
      ],
      "stateMutability": "view",
      "type": "function"
    },
    {
      "inputs": [
        {
          "internalType": "address",
          "name": "member",
          "type": "address"
        }
      ],
      "name": "removeAllowedAddress",
      "outputs": [],
      "stateMutability": "nonpayable",
      "type": "function"
    },
    {
      "inputs": [
        {
          "internalType": "uint256",
          "name": "managementAumFeePercentage",
          "type": "uint256"
        }
      ],
      "name": "setManagementAumFeePercentage",
      "outputs": [
        {
          "internalType": "uint256",
          "name": "",
          "type": "uint256"
        }
      ],
      "stateMutability": "nonpayable",
      "type": "function"
    },
    {
      "inputs": [
        {
          "internalType": "uint256",
          "name": "managementSwapFeePercentage",
          "type": "uint256"
        }
      ],
      "name": "setManagementSwapFeePercentage",
      "outputs": [],
      "stateMutability": "nonpayable",
      "type": "function"
    },
    {
      "inputs": [
        {
          "internalType": "bool",
          "name": "mustAllowlistLPs",
          "type": "bool"
        }
      ],
      "name": "setMustAllowlistLPs",
      "outputs": [],
      "stateMutability": "nonpayable",
      "type": "function"
    },
    {
      "inputs": [
        {
          "internalType": "bool",
          "name": "swapEnabled",
          "type": "bool"
        }
      ],
      "name": "setSwapEnabled",
      "outputs": [],
      "stateMutability": "nonpayable",
      "type": "function"
    },
    {
      "inputs": [
        {
          "internalType": "address",
          "name": "newSwapFeeController",
          "type": "address"
        }
      ],
      "name": "setSwapFeeController",
      "outputs": [],
      "stateMutability": "nonpayable",
      "type": "function"
    },
    {
      "inputs": [
        {
          "internalType": "uint256",
          "name": "swapFeePercentage",
          "type": "uint256"
        }
      ],
      "name": "setSwapFeePercentage",
      "outputs": [],
      "stateMutability": "nonpayable",
      "type": "function"
    },
    {
      "inputs": [
        {
          "internalType": "address",
          "name": "newManager",
          "type": "address"
        }
      ],
      "name": "transferOwnership",
      "outputs": [],
      "stateMutability": "nonpayable",
      "type": "function"
    },
    {
      "inputs": [
        {
          "internalType": "bytes",
          "name": "metadata",
          "type": "bytes"
        }
      ],
      "name": "updateMetadata",
      "outputs": [],
      "stateMutability": "nonpayable",
      "type": "function"
    },
    {
      "inputs": [
        {
          "internalType": "uint256",
          "name": "startTime",
          "type": "uint256"
        },
        {
          "internalType": "uint256",
          "name": "endTime",
          "type": "uint256"
        },
        {
          "internalType": "uint256[]",
          "name": "endWeights",
          "type": "uint256[]"
        }
      ],
      "name": "updateWeightsGradually",
      "outputs": [],
      "stateMutability": "nonpayable",
      "type": "function"
    },
    {
      "inputs": [
        {
          "internalType": "address",
          "name": "recipient",
          "type": "address"
        }
      ],
      "name": "withdrawCollectedManagementFees",
      "outputs": [],
      "stateMutability": "nonpayable",
      "type": "function"
    }
  ],
  "bytecode": "0x60c06040523480156200001157600080fd5b5060405162001a9138038062001a918339810160408190526200003491620001da565b620000408484620000ab565b6080819052600080546001600160a01b0319166001600160a01b038416179055816200007a8260016200013d602090811b620010b317901c565b156200009c57600280546001600160a01b0319166001600160a01b0383161790555b50505060a05250620003269050565b600080620000fa83604001516005620000e586602001516004620000e589600001516003620000e58d6200014760201b6200045c1760201c565b6200018860201b620010bd179092919060201c565b90506200013383606001516006620000e586608001516007620000e58960a001516008896200018860201b620010bd179092919060201c565b9150505b92915050565b1c60019081161490565b6000806200018183604001516002620000e586602001516001620000e589600001516000896200018860201b620010bd179092919060201c565b9392505050565b60006001821b1984168284620001a0576000620001a3565b60015b60ff16901b17949350505050565b80516001600160a01b03811681146200013757600080fd5b805180151581146200013757600080fd5b600080600080848603610160811215620001f2578485fd5b606081121562000200578485fd5b6200020c6060620002ff565b620002188888620001c9565b8152620002298860208901620001c9565b60208201526200023d8860408901620001c9565b6040820152945060c0605f198201121562000256578384fd5b506200026360c0620002ff565b620002728760608801620001c9565b8152620002838760808801620001c9565b6020820152620002978760a08801620001c9565b6040820152620002ab8760c08801620001c9565b6060820152620002bf8760e08801620001c9565b6080820152620002d4876101008801620001c9565b60a08201526101208601519093509150620002f4866101408701620001b1565b905092959194509250565b6040518181016001600160401b03811182821017156200031e57600080fd5b604052919050565b60805160a05161171a62000377600039806106f35280610d4d5250806103cc52806103fe52806108765280610b6d5280610c715280610d765280610efc5280610f295280610f56525061171a6000f3fe608060405234801561001057600080fd5b50600436106101e45760003560e01c8063914645ee1161010f578063c4d66de8116100a2578063de1a10ef11610071578063de1a10ef14610384578063e01af92c1461038c578063f2fde38b1461039f578063fc582d41146103b2576101e4565b8063c4d66de814610359578063d50095841461036c578063d69c843214610374578063dd7b9f071461037c576101e4565b8063baca2866116100de578063baca28661461032e578063bc6b90de14610341578063be14edbb14610349578063c34e58ed14610351576101e4565b8063914645ee146102f85780639ae3368b14610300578063a5f4359714610313578063a9cbee9c14610326576101e4565b80633c9d93b8116101875780635b77155e116101565780635b77155e146102aa5780637a5b4f59146102bd5780637b749c45146102d257806381788e2b146102e5576101e4565b80633c9d93b8146102745780633e569205146102875780634e71e0c81461029a5780635ad32a74146102a2576101e4565b806317eca279116101c357806317eca2791461022457806326b6264d1461022c5780632a9a03231461024c57806338e9922e1461025f576101e4565b8062d499c2146101e95780630facaef31461020757806316f0115b1461020f575b600080fd5b6101f16103c5565b6040516101fe91906115a7565b60405180910390f35b6101f16103f7565b610217610424565b6040516101fe9190611560565b610217610440565b61023f61023a3660046113c3565b61045c565b6040516101fe91906115b2565b61023f61025a3660046114b3565b61049b565b61027261026d3660046114b3565b610591565b005b6102726102823660046112ac565b61065a565b6102726102953660046114e3565b6106c4565b6102726107b4565b6101f161086f565b6102726102b83660046112ac565b61089c565b6102c56109d3565b6040516101fe91906115bb565b6102726102e03660046112e4565b610a87565b6102726102f33660046112ac565b610afc565b6101f1610b66565b61027261030e3660046114b3565b610b93565b61023f6103213660046113de565b610c08565b6101f1610c6a565b61027261033c3660046112ac565b610c97565b61023f610d4b565b6101f1610d6f565b610217610d9c565b6102726103673660046112ac565b610db8565b610217610ed9565b6101f1610ef5565b6101f1610f22565b6101f1610f4f565b61027261039a3660046112e4565b610f7b565b6102726103ad3660046112ac565b610ff0565b6102726103c036600461131c565b61104e565b60006103f27f000000000000000000000000000000000000000000000000000000000000000060046110b3565b905090565b60006103f27f000000000000000000000000000000000000000000000000000000000000000060026110b3565b60035473ffffffffffffffffffffffffffffffffffffffff1681565b60015473ffffffffffffffffffffffffffffffffffffffff1690565b6000806104948360400151600261048d8660200151600161048d89600001516000896110bd9092919063ffffffff16565b91906110bd565b9392505050565b60006104c8336104a9610ed9565b73ffffffffffffffffffffffffffffffffffffffff16146101aa6110e4565b6104d06110f2565b6104e36104db61086f565b6101586110e4565b6003546040517f2a9a032300000000000000000000000000000000000000000000000000000000815273ffffffffffffffffffffffffffffffffffffffff90911690632a9a0323906105399085906004016115b2565b602060405180830381600087803b15801561055357600080fd5b505af1158015610567573d6000803e3d6000fd5b505050506040513d601f19601f8201168201806040525081019061058b91906114cb565b92915050565b6105996110f2565b6105a46104db610d6f565b6105cf336105b0610d9c565b73ffffffffffffffffffffffffffffffffffffffff16146101916110e4565b6003546040517f38e9922e00000000000000000000000000000000000000000000000000000000815273ffffffffffffffffffffffffffffffffffffffff909116906338e9922e906106259084906004016115b2565b600060405180830381600087803b15801561063f57600080fd5b505af1158015610653573d6000803e3d6000fd5b5050505050565b610666336104a9610ed9565b61066e6110f2565b6003546040517f3c9d93b800000000000000000000000000000000000000000000000000000000815273ffffffffffffffffffffffffffffffffffffffff90911690633c9d93b890610625908490600401611560565b6106d0336104a9610ed9565b6106d86110f2565b6106e36104db610b66565b61072084841015801561071857507f000000000000000000000000000000000000000000000000000000000000000085850310155b61014b6110e4565b6003546040517f3e56920500000000000000000000000000000000000000000000000000000000815273ffffffffffffffffffffffffffffffffffffffff90911690633e5692059061077c90879087908790879060040161162c565b600060405180830381600087803b15801561079657600080fd5b505af11580156107aa573d6000803e3d6000fd5b5050505050505050565b60015473ffffffffffffffffffffffffffffffffffffffff166107db3382146101916110e4565b6000805460405173ffffffffffffffffffffffffffffffffffffffff808516939216917f8be0079c531659141344cd1fd0a4f28419497f9722a3daafe3b4186f6b6457e091a36000805473ffffffffffffffffffffffffffffffffffffffff9092167fffffffffffffffffffffffff0000000000000000000000000000000000000000928316179055600180549091169055565b60006103f27f000000000000000000000000000000000000000000000000000000000000000060086110b3565b6108a8336104a9610ed9565b6108b06110f2565b6003546040517f70a0823100000000000000000000000000000000000000000000000000000000815273ffffffffffffffffffffffffffffffffffffffff9091169063a9059cbb90839083906370a0823190610910903090600401611560565b60206040518083038186803b15801561092857600080fd5b505afa15801561093c573d6000803e3d6000fd5b505050506040513d601f19601f8201168201806040525081019061096091906114cb565b6040518363ffffffff1660e01b815260040161097d929190611581565b602060405180830381600087803b15801561099757600080fd5b505af11580156109ab573d6000803e3d6000fd5b505050506040513d601f19601f820116820180604052508101906109cf9190611300565b5050565b60048054604080516020601f60027fffffffffffffffffffffffffffffffffffffffffffffffffffffffffffffffff610100600188161502019095169490940493840181900481028201810190925282815260609390929091830182828015610a7d5780601f10610a5257610100808354040283529160200191610a7d565b820191906000526020600020905b815481529060010190602001808311610a6057829003601f168201915b5050505050905090565b610a93336104a9610ed9565b610a9b6110f2565b610aa66104db610ef5565b6003546040517f7b749c4500000000000000000000000000000000000000000000000000000000815273ffffffffffffffffffffffffffffffffffffffff90911690637b749c45906106259084906004016115a7565b610b08336104a9610ed9565b610b106110f2565b6003546040517f81788e2b00000000000000000000000000000000000000000000000000000000815273ffffffffffffffffffffffffffffffffffffffff909116906381788e2b90610625908490600401611560565b60006103f27f000000000000000000000000000000000000000000000000000000000000000060036110b3565b610b9f336104a9610ed9565b610ba76110f2565b610bb26104db61086f565b6003546040517f9ae3368b00000000000000000000000000000000000000000000000000000000815273ffffffffffffffffffffffffffffffffffffffff90911690639ae3368b906106259084906004016115b2565b600080610c328360400151600561048d8660200151600461048d8960000151600361048d8d61045c565b9050610c628360600151600661048d8660800151600761048d8960a001516008896110bd9092919063ffffffff16565b949350505050565b60006103f27f000000000000000000000000000000000000000000000000000000000000000060076110b3565b610ca3336104a9610ed9565b8073ffffffffffffffffffffffffffffffffffffffff16610cc2610d9c565b73ffffffffffffffffffffffffffffffffffffffff167f73a2cb0569218bcefc78516c493d730dff015e558df1c4793c67d08d4a33befb60405160405180910390a3600280547fffffffffffffffffffffffff00000000000000000000000000000000000000001673ffffffffffffffffffffffffffffffffffffffff92909216919091179055565b7f000000000000000000000000000000000000000000000000000000000000000090565b60006103f27f000000000000000000000000000000000000000000000000000000000000000060016110b3565b60025473ffffffffffffffffffffffffffffffffffffffff1690565b600354610e929073ffffffffffffffffffffffffffffffffffffffff16158015610e8a57503073ffffffffffffffffffffffffffffffffffffffff168273ffffffffffffffffffffffffffffffffffffffff1663893d20e86040518163ffffffff1660e01b815260040160206040518083038186803b158015610e3a57600080fd5b505afa158015610e4e573d6000803e3d6000fd5b505050506040513d601f19601f82011682018060405250810190610e7291906112c8565b73ffffffffffffffffffffffffffffffffffffffff16145b6101566110e4565b600380547fffffffffffffffffffffffff00000000000000000000000000000000000000001673ffffffffffffffffffffffffffffffffffffffff92909216919091179055565b60005473ffffffffffffffffffffffffffffffffffffffff1690565b60006103f27f000000000000000000000000000000000000000000000000000000000000000060056110b3565b60006103f27f000000000000000000000000000000000000000000000000000000000000000060066110b3565b60006103f27f0000000000000000000000000000000000000000000000000000000000000000826110b3565b610f87336104a9610ed9565b610f8f6110f2565b610f9a6104db6103c5565b6003546040517fe01af92c00000000000000000000000000000000000000000000000000000000815273ffffffffffffffffffffffffffffffffffffffff9091169063e01af92c906106259084906004016115a7565b610ffc336104a9610ed9565b6110076104db610f4f565b600180547fffffffffffffffffffffffff00000000000000000000000000000000000000001673ffffffffffffffffffffffffffffffffffffffff92909216919091179055565b61105a336104a9610ed9565b6110656104db6103f7565b80516110789060049060208401906111c3565b507f09f579b21815d3f81581d32e97736ccba1cc89d1918e48da28e6e206acd96864816040516110a891906115bb565b60405180910390a150565b1c60019081161490565b60006001821b19841682846110d35760006110d6565b60015b60ff16901b17949350505050565b816109cf576109cf8161111b565b6003546111199073ffffffffffffffffffffffffffffffffffffffff1615156101596110e4565b565b611145817f42414c0000000000000000000000000000000000000000000000000000000000611148565b50565b7f08c379a000000000000000000000000000000000000000000000000000000000600090815260206004526007602452600a808404818106603090810160081b958390069590950190829004918206850160101b01602363ffffff0060e086901c160160181b0190930160c81b60445260e882901c90606490fd5b828054600181600116156101000203166002900490600052602060002090601f016020900481019282601f1061120457805160ff1916838001178555611231565b82800160010185558215611231579182015b82811115611231578251825591602001919060010190611216565b5061123d929150611241565b5090565b5b8082111561123d5760008155600101611242565b600060608284031215611267578081fd5b611271606061168d565b9050813561127e816116d6565b8152602082013561128e816116d6565b602082015260408201356112a1816116d6565b604082015292915050565b6000602082840312156112bd578081fd5b8135610494816116b4565b6000602082840312156112d9578081fd5b8151610494816116b4565b6000602082840312156112f5578081fd5b8135610494816116d6565b600060208284031215611311578081fd5b8151610494816116d6565b6000602080838503121561132e578182fd5b823567ffffffffffffffff80821115611345578384fd5b818501915085601f830112611358578384fd5b813581811115611366578485fd5b611396847fffffffffffffffffffffffffffffffffffffffffffffffffffffffffffffffe0601f8401160161168d565b915080825286848285010111156113ab578485fd5b80848401858401378101909201929092529392505050565b6000606082840312156113d4578081fd5b6104948383611256565b6000808284036101208112156113f2578182fd5b6113fc8585611256565b925060c07fffffffffffffffffffffffffffffffffffffffffffffffffffffffffffffffa08201121561142d578182fd5b5061143860c061168d565b6060840135611446816116d6565b81526080840135611456816116d6565b602082015260a0840135611469816116d6565b604082015260c084013561147c816116d6565b606082015260e084013561148f816116d6565b60808201526101008401356114a3816116d6565b60a0820152919491935090915050565b6000602082840312156114c4578081fd5b5035919050565b6000602082840312156114dc578081fd5b5051919050565b600080600080606085870312156114f8578182fd5b8435935060208501359250604085013567ffffffffffffffff8082111561151d578384fd5b818701915087601f830112611530578384fd5b81358181111561153e578485fd5b8860208083028501011115611551578485fd5b95989497505060200194505050565b73ffffffffffffffffffffffffffffffffffffffff91909116815260200190565b73ffffffffffffffffffffffffffffffffffffffff929092168252602082015260400190565b901515815260200190565b90815260200190565b6000602080835283518082850152825b818110156115e7578581018301518582016040015282016115cb565b818111156115f85783604083870101525b50601f017fffffffffffffffffffffffffffffffffffffffffffffffffffffffffffffffe016929092016040019392505050565b6000858252846020830152606060408301528260608301527f07ffffffffffffffffffffffffffffffffffffffffffffffffffffffffffffff831115611670578081fd5b602083028085608085013791909101608001908152949350505050565b60405181810167ffffffffffffffff811182821017156116ac57600080fd5b604052919050565b73ffffffffffffffffffffffffffffffffffffffff8116811461114557600080fd5b801515811461114557600080fdfea26469706673582212203dd32d4dcdbe8ad0808cd8edf466182ada372d74b2c4143381ce84ae3a42e23664736f6c63430007010033",
  "linkReferences": {},
  "deployedLinkReferences": {}
}